{
  "contractName": "CrowdFunding",
  "abi": [
    {
      "inputs": [
        {
          "internalType": "uint256",
          "name": "_initialSupply",
          "type": "uint256"
        },
        {
          "internalType": "uint256",
          "name": "_minPeriodOfDeadline",
          "type": "uint256"
        }
      ],
      "stateMutability": "nonpayable",
      "type": "constructor"
    },
    {
      "anonymous": false,
      "inputs": [
        {
          "indexed": true,
          "internalType": "address",
          "name": "owner",
          "type": "address"
        },
        {
          "indexed": true,
          "internalType": "address",
          "name": "spender",
          "type": "address"
        },
        {
          "indexed": false,
          "internalType": "uint256",
          "name": "value",
          "type": "uint256"
        }
      ],
      "name": "Approval",
      "type": "event"
    },
    {
      "anonymous": false,
      "inputs": [
        {
          "indexed": true,
          "internalType": "uint256",
          "name": "campaignID",
          "type": "uint256"
        },
        {
          "indexed": true,
          "internalType": "uint256",
          "name": "timestamp",
          "type": "uint256"
        }
      ],
      "name": "GoalReached",
      "type": "event"
    },
    {
      "anonymous": false,
      "inputs": [
        {
          "indexed": true,
          "internalType": "address",
          "name": "minter",
          "type": "address"
        },
        {
          "indexed": true,
          "internalType": "address",
          "name": "to",
          "type": "address"
        },
        {
          "indexed": true,
          "internalType": "uint256",
          "name": "amount",
          "type": "uint256"
        }
      ],
      "name": "Mint",
      "type": "event"
    },
    {
      "anonymous": false,
      "inputs": [
        {
          "indexed": true,
          "internalType": "address",
          "name": "account",
          "type": "address"
        }
      ],
      "name": "MinterAdded",
      "type": "event"
    },
    {
      "anonymous": false,
      "inputs": [
        {
          "indexed": true,
          "internalType": "address",
          "name": "account",
          "type": "address"
        }
      ],
      "name": "MinterRemoved",
      "type": "event"
    },
    {
      "anonymous": false,
      "inputs": [
        {
          "indexed": true,
          "internalType": "uint256",
          "name": "campaignID",
          "type": "uint256"
        },
        {
          "indexed": true,
          "internalType": "address",
          "name": "beneficiary",
          "type": "address"
        },
        {
          "indexed": true,
          "internalType": "uint256",
          "name": "deadline",
          "type": "uint256"
        },
        {
          "indexed": false,
          "internalType": "uint256",
          "name": "amount",
          "type": "uint256"
        }
      ],
      "name": "NewCampaignCreated",
      "type": "event"
    },
    {
      "anonymous": false,
      "inputs": [
        {
          "indexed": true,
          "internalType": "address",
          "name": "from",
          "type": "address"
        },
        {
          "indexed": true,
          "internalType": "uint256",
          "name": "campaignID",
          "type": "uint256"
        },
        {
          "indexed": true,
          "internalType": "uint256",
          "name": "amountFunded",
          "type": "uint256"
        }
      ],
      "name": "NewContribution",
      "type": "event"
    },
    {
      "anonymous": false,
      "inputs": [
        {
          "indexed": true,
          "internalType": "address",
          "name": "from",
          "type": "address"
        },
        {
          "indexed": true,
          "internalType": "address",
          "name": "to",
          "type": "address"
        }
      ],
      "name": "NewOwnership",
      "type": "event"
    },
    {
      "anonymous": false,
      "inputs": [
        {
          "indexed": true,
          "internalType": "address",
          "name": "from",
          "type": "address"
        },
        {
          "indexed": true,
          "internalType": "address",
          "name": "to",
          "type": "address"
        }
      ],
      "name": "NewPendingOwnership",
      "type": "event"
    },
    {
      "anonymous": false,
      "inputs": [
        {
          "indexed": true,
          "internalType": "address",
          "name": "from",
          "type": "address"
        },
        {
          "indexed": true,
          "internalType": "uint256",
          "name": "amount",
          "type": "uint256"
        }
      ],
      "name": "OfferReceived",
      "type": "event"
    },
    {
      "anonymous": false,
      "inputs": [
        {
          "indexed": true,
          "internalType": "address",
          "name": "refunded",
          "type": "address"
        },
        {
          "indexed": true,
          "internalType": "uint256",
          "name": "amount",
          "type": "uint256"
        },
        {
          "indexed": true,
          "internalType": "uint256",
          "name": "campaignID",
          "type": "uint256"
        }
      ],
      "name": "Refund",
      "type": "event"
    },
    {
      "anonymous": false,
      "inputs": [
        {
          "indexed": true,
          "internalType": "address",
          "name": "from",
          "type": "address"
        },
        {
          "indexed": true,
          "internalType": "address",
          "name": "to",
          "type": "address"
        },
        {
          "indexed": false,
          "internalType": "uint256",
          "name": "value",
          "type": "uint256"
        }
      ],
      "name": "Transfer",
      "type": "event"
    },
    {
      "inputs": [],
      "name": "acceptOwnership",
      "outputs": [],
      "stateMutability": "nonpayable",
      "type": "function"
    },
    {
      "inputs": [
        {
          "internalType": "address",
          "name": "_account",
          "type": "address"
        }
      ],
      "name": "addMinter",
      "outputs": [],
      "stateMutability": "nonpayable",
      "type": "function"
    },
    {
      "inputs": [
        {
          "internalType": "address",
          "name": "owner",
          "type": "address"
        },
        {
          "internalType": "address",
          "name": "spender",
          "type": "address"
        }
      ],
      "name": "allowance",
      "outputs": [
        {
          "internalType": "uint256",
          "name": "",
          "type": "uint256"
        }
      ],
      "stateMutability": "view",
      "type": "function",
      "constant": true
    },
    {
      "inputs": [
        {
          "internalType": "address",
          "name": "spender",
          "type": "address"
        },
        {
          "internalType": "uint256",
          "name": "amount",
          "type": "uint256"
        }
      ],
      "name": "approve",
      "outputs": [
        {
          "internalType": "bool",
          "name": "",
          "type": "bool"
        }
      ],
      "stateMutability": "nonpayable",
      "type": "function"
    },
    {
      "inputs": [
        {
          "internalType": "address",
          "name": "account",
          "type": "address"
        }
      ],
      "name": "balanceOf",
      "outputs": [
        {
          "internalType": "uint256",
          "name": "",
          "type": "uint256"
        }
      ],
      "stateMutability": "view",
      "type": "function",
      "constant": true
    },
    {
      "inputs": [
        {
          "internalType": "uint256",
          "name": "amount",
          "type": "uint256"
        }
      ],
      "name": "burn",
      "outputs": [],
      "stateMutability": "nonpayable",
      "type": "function"
    },
    {
      "inputs": [
        {
          "internalType": "address",
          "name": "account",
          "type": "address"
        },
        {
          "internalType": "uint256",
          "name": "amount",
          "type": "uint256"
        }
      ],
      "name": "burnFrom",
      "outputs": [],
      "stateMutability": "nonpayable",
      "type": "function"
    },
    {
      "inputs": [
        {
          "internalType": "uint256",
          "name": "",
          "type": "uint256"
        }
      ],
      "name": "campaigns",
      "outputs": [
        {
          "internalType": "address payable",
          "name": "beneficiary",
          "type": "address"
        },
        {
          "internalType": "string",
          "name": "description",
          "type": "string"
        },
        {
          "internalType": "uint256",
          "name": "fundingGoal",
          "type": "uint256"
        },
        {
          "internalType": "uint256",
          "name": "deadline",
          "type": "uint256"
        },
        {
          "internalType": "uint256",
          "name": "numFunders",
          "type": "uint256"
        },
        {
          "internalType": "uint256",
          "name": "amount",
          "type": "uint256"
        },
        {
          "internalType": "bool",
          "name": "completed",
          "type": "bool"
        }
      ],
      "stateMutability": "view",
      "type": "function",
      "constant": true
    },
    {
      "inputs": [],
      "name": "decimals",
      "outputs": [
        {
          "internalType": "uint8",
          "name": "",
          "type": "uint8"
        }
      ],
      "stateMutability": "view",
      "type": "function",
      "constant": true
    },
    {
      "inputs": [
        {
          "internalType": "address",
          "name": "spender",
          "type": "address"
        },
        {
          "internalType": "uint256",
          "name": "subtractedValue",
          "type": "uint256"
        }
      ],
      "name": "decreaseAllowance",
      "outputs": [
        {
          "internalType": "bool",
          "name": "",
          "type": "bool"
        }
      ],
      "stateMutability": "nonpayable",
      "type": "function"
    },
    {
      "inputs": [],
      "name": "governor",
      "outputs": [
        {
          "internalType": "address",
          "name": "",
          "type": "address"
        }
      ],
      "stateMutability": "view",
      "type": "function",
      "constant": true
    },
    {
      "inputs": [
        {
          "internalType": "address",
          "name": "spender",
          "type": "address"
        },
        {
          "internalType": "uint256",
          "name": "addedValue",
          "type": "uint256"
        }
      ],
      "name": "increaseAllowance",
      "outputs": [
        {
          "internalType": "bool",
          "name": "",
          "type": "bool"
        }
      ],
      "stateMutability": "nonpayable",
      "type": "function"
    },
    {
      "inputs": [
        {
          "internalType": "address",
          "name": "_account",
          "type": "address"
        }
      ],
      "name": "isMinter",
      "outputs": [
        {
          "internalType": "bool",
          "name": "",
          "type": "bool"
        }
      ],
      "stateMutability": "view",
      "type": "function",
      "constant": true
    },
    {
      "inputs": [],
      "name": "minPeriodOfDeadline",
      "outputs": [
        {
          "internalType": "uint256",
          "name": "",
          "type": "uint256"
        }
      ],
      "stateMutability": "view",
      "type": "function",
      "constant": true
    },
    {
      "inputs": [
        {
          "internalType": "address",
          "name": "_to",
          "type": "address"
        },
        {
          "internalType": "uint256",
          "name": "_amount",
          "type": "uint256"
        }
      ],
      "name": "mint",
      "outputs": [],
      "stateMutability": "nonpayable",
      "type": "function"
    },
    {
      "inputs": [],
      "name": "name",
      "outputs": [
        {
          "internalType": "string",
          "name": "",
          "type": "string"
        }
      ],
      "stateMutability": "view",
      "type": "function",
      "constant": true
    },
    {
      "inputs": [
        {
          "internalType": "address",
          "name": "",
          "type": "address"
        }
      ],
      "name": "nonces",
      "outputs": [
        {
          "internalType": "uint256",
          "name": "",
          "type": "uint256"
        }
      ],
      "stateMutability": "view",
      "type": "function",
      "constant": true
    },
    {
      "inputs": [],
      "name": "numCampaigns",
      "outputs": [
        {
          "internalType": "uint256",
          "name": "",
          "type": "uint256"
        }
      ],
      "stateMutability": "view",
      "type": "function",
      "constant": true
    },
    {
      "inputs": [],
      "name": "pendingGovernor",
      "outputs": [
        {
          "internalType": "address",
          "name": "",
          "type": "address"
        }
      ],
      "stateMutability": "view",
      "type": "function",
      "constant": true
    },
    {
      "inputs": [
        {
          "internalType": "address",
          "name": "_account",
          "type": "address"
        }
      ],
      "name": "removeMinter",
      "outputs": [],
      "stateMutability": "nonpayable",
      "type": "function"
    },
    {
      "inputs": [],
      "name": "renounceMinter",
      "outputs": [],
      "stateMutability": "nonpayable",
      "type": "function"
    },
    {
      "inputs": [],
      "name": "symbol",
      "outputs": [
        {
          "internalType": "string",
          "name": "",
          "type": "string"
        }
      ],
      "stateMutability": "view",
      "type": "function",
      "constant": true
    },
    {
      "inputs": [],
      "name": "totalSupply",
      "outputs": [
        {
          "internalType": "uint256",
          "name": "",
          "type": "uint256"
        }
      ],
      "stateMutability": "view",
      "type": "function",
      "constant": true
    },
    {
      "inputs": [
        {
          "internalType": "address",
          "name": "recipient",
          "type": "address"
        },
        {
          "internalType": "uint256",
          "name": "amount",
          "type": "uint256"
        }
      ],
      "name": "transfer",
      "outputs": [
        {
          "internalType": "bool",
          "name": "",
          "type": "bool"
        }
      ],
      "stateMutability": "nonpayable",
      "type": "function"
    },
    {
      "inputs": [
        {
          "internalType": "address",
          "name": "sender",
          "type": "address"
        },
        {
          "internalType": "address",
          "name": "recipient",
          "type": "address"
        },
        {
          "internalType": "uint256",
          "name": "amount",
          "type": "uint256"
        }
      ],
      "name": "transferFrom",
      "outputs": [
        {
          "internalType": "bool",
          "name": "",
          "type": "bool"
        }
      ],
      "stateMutability": "nonpayable",
      "type": "function"
    },
    {
      "inputs": [
        {
          "internalType": "address",
          "name": "_newGovernor",
          "type": "address"
        }
      ],
      "name": "transferOwnership",
      "outputs": [],
      "stateMutability": "nonpayable",
      "type": "function"
    },
    {
      "stateMutability": "payable",
      "type": "receive",
      "payable": true
    },
    {
      "inputs": [
        {
          "internalType": "address payable",
          "name": "_beneficiary",
          "type": "address"
        },
        {
          "internalType": "string",
          "name": "_description",
          "type": "string"
        },
        {
          "internalType": "uint256",
          "name": "_goal",
          "type": "uint256"
        },
        {
          "internalType": "uint256",
          "name": "_deadline",
          "type": "uint256"
        }
      ],
      "name": "newCampaign",
      "outputs": [
        {
          "internalType": "uint256",
          "name": "",
          "type": "uint256"
        }
      ],
      "stateMutability": "nonpayable",
      "type": "function"
    },
    {
      "inputs": [
        {
          "internalType": "uint256",
          "name": "campaignID",
          "type": "uint256"
        }
      ],
      "name": "contribute",
      "outputs": [],
      "stateMutability": "payable",
      "type": "function",
      "payable": true
    },
    {
      "inputs": [
        {
          "internalType": "uint256",
          "name": "campaignID",
          "type": "uint256"
        }
      ],
      "name": "checkGoalReached",
      "outputs": [
        {
          "internalType": "bool",
          "name": "",
          "type": "bool"
        }
      ],
      "stateMutability": "nonpayable",
      "type": "function"
    },
    {
      "inputs": [
        {
          "internalType": "uint256",
          "name": "campaignID",
          "type": "uint256"
        }
      ],
      "name": "refund",
      "outputs": [],
      "stateMutability": "nonpayable",
      "type": "function"
    },
    {
      "inputs": [
        {
          "internalType": "address payable",
          "name": "_recipient",
          "type": "address"
        }
      ],
      "name": "collect",
      "outputs": [],
      "stateMutability": "nonpayable",
      "type": "function"
    }
  ],
  "bytecode": "0x60806040523480156200001157600080fd5b506040516200443138038062004431833981810160405281019062000037919062000476565b816040518060400160405280600b81526020017f43726f776420546f6b656e0000000000000000000000000000000000000000008152506040518060400160405280600381526020017f43574400000000000000000000000000000000000000000000000000000000008152508160059080519060200190620000bc92919062000386565b508060069080519060200190620000d592919062000386565b505050620000ee336200012160201b62001fa71760201c565b6200010033826200016460201b60201c565b6200011133620002de60201b60201c565b5080600b8190555050506200065f565b806000806101000a81548173ffffffffffffffffffffffffffffffffffffffff021916908373ffffffffffffffffffffffffffffffffffffffff16021790555050565b600073ffffffffffffffffffffffffffffffffffffffff168273ffffffffffffffffffffffffffffffffffffffff161415620001d7576040517f08c379a0000000000000000000000000000000000000000000000000000000008152600401620001ce906200051e565b60405180910390fd5b620001eb600083836200037c60201b60201c565b8060046000828254620001ff91906200056f565b9250508190555080600260008473ffffffffffffffffffffffffffffffffffffffff1673ffffffffffffffffffffffffffffffffffffffff16815260200190815260200160002060008282546200025791906200056f565b925050819055508173ffffffffffffffffffffffffffffffffffffffff16600073ffffffffffffffffffffffffffffffffffffffff167fddf252ad1be2c89b69c2b068fc378daa952ba7f163c4a11628f55a4df523b3ef83604051620002be9190620005dd565b60405180910390a3620002da600083836200038160201b60201c565b5050565b6001600760008373ffffffffffffffffffffffffffffffffffffffff1673ffffffffffffffffffffffffffffffffffffffff16815260200190815260200160002060006101000a81548160ff0219169083151502179055508073ffffffffffffffffffffffffffffffffffffffff167f6ae172837ea30b801fbfcdd4108aa1d5bf8ff775444fd70256b44e6bf3dfc3f660405160405180910390a250565b505050565b505050565b828054620003949062000629565b90600052602060002090601f016020900481019282620003b8576000855562000404565b82601f10620003d357805160ff191683800117855562000404565b8280016001018555821562000404579182015b8281111562000403578251825591602001919060010190620003e6565b5b50905062000413919062000417565b5090565b5b808211156200043257600081600090555060010162000418565b5090565b600080fd5b6000819050919050565b62000450816200043b565b81146200045c57600080fd5b50565b600081519050620004708162000445565b92915050565b6000806040838503121562000490576200048f62000436565b5b6000620004a0858286016200045f565b9250506020620004b3858286016200045f565b9150509250929050565b600082825260208201905092915050565b7f45524332303a206d696e7420746f20746865207a65726f206164647265737300600082015250565b600062000506601f83620004bd565b91506200051382620004ce565b602082019050919050565b600060208201905081810360008301526200053981620004f7565b9050919050565b7f4e487b7100000000000000000000000000000000000000000000000000000000600052601160045260246000fd5b60006200057c826200043b565b915062000589836200043b565b9250827fffffffffffffffffffffffffffffffffffffffffffffffffffffffffffffffff03821115620005c157620005c062000540565b5b828201905092915050565b620005d7816200043b565b82525050565b6000602082019050620005f46000830184620005cc565b92915050565b7f4e487b7100000000000000000000000000000000000000000000000000000000600052602260045260246000fd5b600060028204905060018216806200064257607f821691505b60208210811415620006595762000658620005fa565b5b50919050565b613dc2806200066f6000396000f3fe6080604052600436106101dc5760003560e01c80635b2329d4116101025780639865027511610095578063c1cbbca711610064578063c1cbbca71461074b578063dd62ed3e14610767578063e3056a34146107a4578063f2fde38b146107cf57610227565b8063986502751461067d578063a457c2d714610694578063a9059cbb146106d1578063aa271e1a1461070e57610227565b80637b1dab89116100d15780637b1dab89146105af5780637ecebe00146105ec57806395d89b4114610629578063983b2d561461065457610227565b80635b2329d4146104f557806370a082311461053257806379ba50971461056f57806379cc67901461058657610227565b8063278ecde11161017a5780633950935111610149578063395093511461043b57806340c10f191461047857806342966c68146104a1578063497a17f9146104ca57610227565b8063278ecde1146103935780632c0f7b6f146103bc5780633092afd5146103e7578063313ce5671461041057610227565b80630c340a24116101b65780630c340a24146102bd578063141961bc146102e857806318160ddd1461032b57806323b872dd1461035657610227565b806306ec16f81461022c57806306fdde0314610255578063095ea7b31461028057610227565b3661022757343373ffffffffffffffffffffffffffffffffffffffff167faf2a29b830dfbf048c87d6f9222d27f6a1617bef58cbaaea3606097e7407ab8d60405160405180910390a3005b600080fd5b34801561023857600080fd5b50610253600480360381019061024e9190612a02565b6107f8565b005b34801561026157600080fd5b5061026a6108d0565b6040516102779190612ac8565b60405180910390f35b34801561028c57600080fd5b506102a760048036038101906102a29190612b5e565b610962565b6040516102b49190612bb9565b60405180910390f35b3480156102c957600080fd5b506102d2610980565b6040516102df9190612be3565b60405180910390f35b3480156102f457600080fd5b5061030f600480360381019061030a9190612bfe565b6109a4565b6040516103229796959493929190612c49565b60405180910390f35b34801561033757600080fd5b50610340610a9b565b60405161034d9190612cbf565b60405180910390f35b34801561036257600080fd5b5061037d60048036038101906103789190612cda565b610aa5565b60405161038a9190612bb9565b60405180910390f35b34801561039f57600080fd5b506103ba60048036038101906103b59190612bfe565b610bc4565b005b3480156103c857600080fd5b506103d1610e81565b6040516103de9190612cbf565b60405180910390f35b3480156103f357600080fd5b5061040e60048036038101906104099190612d2d565b610e87565b005b34801561041c57600080fd5b50610425610f21565b6040516104329190612d76565b60405180910390f35b34801561044757600080fd5b50610462600480360381019061045d9190612b5e565b610f2a565b60405161046f9190612bb9565b60405180910390f35b34801561048457600080fd5b5061049f600480360381019061049a9190612b5e565b610fd6565b005b3480156104ad57600080fd5b506104c860048036038101906104c39190612bfe565b611087565b005b3480156104d657600080fd5b506104df61109b565b6040516104ec9190612cbf565b60405180910390f35b34801561050157600080fd5b5061051c60048036038101906105179190612bfe565b6110a1565b6040516105299190612bb9565b60405180910390f35b34801561053e57600080fd5b5061055960048036038101906105549190612d2d565b611134565b6040516105669190612cbf565b60405180910390f35b34801561057b57600080fd5b5061058461117d565b005b34801561059257600080fd5b506105ad60048036038101906105a89190612b5e565b611453565b005b3480156105bb57600080fd5b506105d660048036038101906105d19190612ec6565b6114ce565b6040516105e39190612cbf565b60405180910390f35b3480156105f857600080fd5b50610613600480360381019061060e9190612d2d565b611743565b6040516106209190612cbf565b60405180910390f35b34801561063557600080fd5b5061063e61175b565b60405161064b9190612ac8565b60405180910390f35b34801561066057600080fd5b5061067b60048036038101906106769190612d2d565b6117ed565b005b34801561068957600080fd5b50610692611887565b005b3480156106a057600080fd5b506106bb60048036038101906106b69190612b5e565b611892565b6040516106c89190612bb9565b60405180910390f35b3480156106dd57600080fd5b506106f860048036038101906106f39190612b5e565b61197d565b6040516107059190612bb9565b60405180910390f35b34801561071a57600080fd5b5061073560048036038101906107309190612d2d565b61199b565b6040516107429190612bb9565b60405180910390f35b61076560048036038101906107609190612bfe565b6119f1565b005b34801561077357600080fd5b5061078e60048036038101906107899190612f49565b611d14565b60405161079b9190612cbf565b60405180910390f35b3480156107b057600080fd5b506107b9611d9b565b6040516107c69190612be3565b60405180910390f35b3480156107db57600080fd5b506107f660048036038101906107f19190612d2d565b611dc1565b005b60008054906101000a900473ffffffffffffffffffffffffffffffffffffffff1673ffffffffffffffffffffffffffffffffffffffff163373ffffffffffffffffffffffffffffffffffffffff1614610886576040517f08c379a000000000000000000000000000000000000000000000000000000000815260040161087d90612fd5565b60405180910390fd5b8073ffffffffffffffffffffffffffffffffffffffff166108fc479081150290604051600060405180830381858888f193505050501580156108cc573d6000803e3d6000fd5b5050565b6060600580546108df90613024565b80601f016020809104026020016040519081016040528092919081815260200182805461090b90613024565b80156109585780601f1061092d57610100808354040283529160200191610958565b820191906000526020600020905b81548152906001019060200180831161093b57829003601f168201915b5050505050905090565b600061097661096f611fea565b8484611ff2565b6001905092915050565b60008054906101000a900473ffffffffffffffffffffffffffffffffffffffff1681565b600a6020528060005260406000206000915090508060000160009054906101000a900473ffffffffffffffffffffffffffffffffffffffff16908060010180546109ed90613024565b80601f0160208091040260200160405190810160405280929190818152602001828054610a1990613024565b8015610a665780601f10610a3b57610100808354040283529160200191610a66565b820191906000526020600020905b815481529060010190602001808311610a4957829003601f168201915b5050505050908060020154908060030154908060040154908060050154908060070160009054906101000a900460ff16905087565b6000600454905090565b600080600360008673ffffffffffffffffffffffffffffffffffffffff1673ffffffffffffffffffffffffffffffffffffffff1681526020019081526020016000206000610af1611fea565b73ffffffffffffffffffffffffffffffffffffffff1673ffffffffffffffffffffffffffffffffffffffff1681526020019081526020016000205490507fffffffffffffffffffffffffffffffffffffffffffffffffffffffffffffffff8114610bad5782811015610b98576040517f08c379a0000000000000000000000000000000000000000000000000000000008152600401610b8f906130c8565b60405180910390fd5b610bac85610ba4611fea565b858403611ff2565b5b610bb88585856121bd565b60019150509392505050565b6000600a600083815260200190815260200160002090506000816002015411610c22576040517f08c379a0000000000000000000000000000000000000000000000000000000008152600401610c1990613134565b60405180910390fd5b80600301544211610c68576040517f08c379a0000000000000000000000000000000000000000000000000000000008152600401610c5f906131a0565b60405180910390fd5b600015158160070160009054906101000a900460ff16151514610cc0576040517f08c379a0000000000000000000000000000000000000000000000000000000008152600401610cb790613232565b60405180910390fd5b60008160060160003373ffffffffffffffffffffffffffffffffffffffff1673ffffffffffffffffffffffffffffffffffffffff1681526020019081526020016000205411610d44576040517f08c379a0000000000000000000000000000000000000000000000000000000008152600401610d3b906132c4565b60405180910390fd5b60008160060160003373ffffffffffffffffffffffffffffffffffffffff1673ffffffffffffffffffffffffffffffffffffffff16815260200190815260200160002054905060008260060160003373ffffffffffffffffffffffffffffffffffffffff1673ffffffffffffffffffffffffffffffffffffffff16815260200190815260200160002081905550610de881836005015461244190919063ffffffff16565b82600501819055503373ffffffffffffffffffffffffffffffffffffffff166108fc829081150290604051600060405180830381858888f19350505050158015610e36573d6000803e3d6000fd5b5082813373ffffffffffffffffffffffffffffffffffffffff167f73f04af9dcc582a923ec15d3eea990fe34adabfff2879e28d44572e01a54abb660405160405180910390a4505050565b60095481565b60008054906101000a900473ffffffffffffffffffffffffffffffffffffffff1673ffffffffffffffffffffffffffffffffffffffff163373ffffffffffffffffffffffffffffffffffffffff1614610f15576040517f08c379a0000000000000000000000000000000000000000000000000000000008152600401610f0c90612fd5565b60405180910390fd5b610f1e81612457565b50565b60006012905090565b6000610fcc610f37611fea565b848460036000610f45611fea565b73ffffffffffffffffffffffffffffffffffffffff1673ffffffffffffffffffffffffffffffffffffffff16815260200190815260200160002060008873ffffffffffffffffffffffffffffffffffffffff1673ffffffffffffffffffffffffffffffffffffffff16815260200190815260200160002054610fc79190613313565b611ff2565b6001905092915050565b610fdf3361199b565b61101e576040517f08c379a0000000000000000000000000000000000000000000000000000000008152600401611015906133b5565b60405180910390fd5b61102882826124f5565b808273ffffffffffffffffffffffffffffffffffffffff163373ffffffffffffffffffffffffffffffffffffffff167fab8530f87dc9b59234c4623bf917212bb2536d647574c8e7e5da92c2ede0c9f860405160405180910390a45050565b611098611092611fea565b82612656565b50565b600b5481565b600080600a60008481526020019081526020016000209050600115158160070160009054906101000a900460ff16151514156110e157600191505061112f565b8060020154816005015410156110fb57600091505061112f565b42837f85b3ed4e45559c5f41fb220aa4ac86a440dfc741f219089de694242940aaa09c60405160405180910390a360019150505b919050565b6000600260008373ffffffffffffffffffffffffffffffffffffffff1673ffffffffffffffffffffffffffffffffffffffff168152602001908152602001600020549050919050565b600073ffffffffffffffffffffffffffffffffffffffff16600160009054906101000a900473ffffffffffffffffffffffffffffffffffffffff1673ffffffffffffffffffffffffffffffffffffffff16141580156112295750600160009054906101000a900473ffffffffffffffffffffffffffffffffffffffff1673ffffffffffffffffffffffffffffffffffffffff163373ffffffffffffffffffffffffffffffffffffffff16145b611268576040517f08c379a000000000000000000000000000000000000000000000000000000000815260040161125f90613421565b60405180910390fd5b60008060009054906101000a900473ffffffffffffffffffffffffffffffffffffffff1690506000600160009054906101000a900473ffffffffffffffffffffffffffffffffffffffff169050600160009054906101000a900473ffffffffffffffffffffffffffffffffffffffff166000806101000a81548173ffffffffffffffffffffffffffffffffffffffff021916908373ffffffffffffffffffffffffffffffffffffffff1602179055506000600160006101000a81548173ffffffffffffffffffffffffffffffffffffffff021916908373ffffffffffffffffffffffffffffffffffffffff16021790555060008054906101000a900473ffffffffffffffffffffffffffffffffffffffff1673ffffffffffffffffffffffffffffffffffffffff168273ffffffffffffffffffffffffffffffffffffffff167f0ac6deed30eef60090c749850e10f2fa469e3e25fec1d1bef2853003f6e6f18f60405160405180910390a3600160009054906101000a900473ffffffffffffffffffffffffffffffffffffffff1673ffffffffffffffffffffffffffffffffffffffff168173ffffffffffffffffffffffffffffffffffffffff167f76563ad561b7036ae716b9b25cb521b21463240f104c97e12f25877f2235f33d60405160405180910390a35050565b600061146683611461611fea565b611d14565b9050818110156114ab576040517f08c379a00000000000000000000000000000000000000000000000000000000081526004016114a2906134b3565b60405180910390fd5b6114bf836114b7611fea565b848403611ff2565b6114c98383612656565b505050565b60008073ffffffffffffffffffffffffffffffffffffffff168573ffffffffffffffffffffffffffffffffffffffff16141561153f576040517f08c379a00000000000000000000000000000000000000000000000000000000081526004016115369061351f565b60405180910390fd5b60008311611582576040517f08c379a00000000000000000000000000000000000000000000000000000000081526004016115799061358b565b60405180910390fd5b4282116115c4576040517f08c379a00000000000000000000000000000000000000000000000000000000081526004016115bb906135f7565b60405180910390fd5b600b546115da428461244190919063ffffffff16565b1161161a576040517f08c379a0000000000000000000000000000000000000000000000000000000008152600401611611906135f7565b60405180910390fd5b60006009600081548092919061162f90613617565b9190505590506000600a60008381526020019081526020016000209050868160000160006101000a81548173ffffffffffffffffffffffffffffffffffffffff021916908373ffffffffffffffffffffffffffffffffffffffff160217905550858160010190805190602001906116a79291906128ed565b5084816002018190555083816003018190555080600501548160000160009054906101000a900473ffffffffffffffffffffffffffffffffffffffff1673ffffffffffffffffffffffffffffffffffffffff16837f3607c7ff6ba5d0178b52df8cc03119d6793c0c3d64051d3c01739067c088abd2846003015460405161172e9190612cbf565b60405180910390a48192505050949350505050565b60086020528060005260406000206000915090505481565b60606006805461176a90613024565b80601f016020809104026020016040519081016040528092919081815260200182805461179690613024565b80156117e35780601f106117b8576101008083540402835291602001916117e3565b820191906000526020600020905b8154815290600101906020018083116117c657829003601f168201915b5050505050905090565b60008054906101000a900473ffffffffffffffffffffffffffffffffffffffff1673ffffffffffffffffffffffffffffffffffffffff163373ffffffffffffffffffffffffffffffffffffffff161461187b576040517f08c379a000000000000000000000000000000000000000000000000000000000815260040161187290612fd5565b60405180910390fd5b6118848161282f565b50565b61189033612457565b565b600080600360006118a1611fea565b73ffffffffffffffffffffffffffffffffffffffff1673ffffffffffffffffffffffffffffffffffffffff16815260200190815260200160002060008573ffffffffffffffffffffffffffffffffffffffff1673ffffffffffffffffffffffffffffffffffffffff1681526020019081526020016000205490508281101561195e576040517f08c379a0000000000000000000000000000000000000000000000000000000008152600401611955906136d2565b60405180910390fd5b611972611969611fea565b85858403611ff2565b600191505092915050565b600061199161198a611fea565b84846121bd565b6001905092915050565b6000600760008373ffffffffffffffffffffffffffffffffffffffff1673ffffffffffffffffffffffffffffffffffffffff16815260200190815260200160002060009054906101000a900460ff169050919050565b6000600a60008381526020019081526020016000209050600015158160070160009054906101000a900460ff16151514611a60576040517f08c379a0000000000000000000000000000000000000000000000000000000008152600401611a5790613764565b60405180910390fd5b6000816002015411611aa7576040517f08c379a0000000000000000000000000000000000000000000000000000000008152600401611a9e906137d0565b60405180910390fd5b42816003015411611aed576040517f08c379a0000000000000000000000000000000000000000000000000000000008152600401611ae490613862565b60405180910390fd5b60008160060160003373ffffffffffffffffffffffffffffffffffffffff1673ffffffffffffffffffffffffffffffffffffffff168152602001908152602001600020541415611b5257806004016000815480929190611b4c90613617565b91905055505b611ba6348260060160003373ffffffffffffffffffffffffffffffffffffffff1673ffffffffffffffffffffffffffffffffffffffff168152602001908152602001600020546128cd90919063ffffffff16565b8160060160003373ffffffffffffffffffffffffffffffffffffffff1673ffffffffffffffffffffffffffffffffffffffff16815260200190815260200160002081905550611c023482600501546128cd90919063ffffffff16565b816005018190555034823373ffffffffffffffffffffffffffffffffffffffff167f16d99cb06fd9528f88184dd0483174a09cfd8312c28639858734b0c449cc05b860405160405180910390a4611c5933346124f5565b611c62826110a1565b15611d10576000816005015490506000826005018190555060018260070160006101000a81548160ff0219169083151502179055508160000160009054906101000a900473ffffffffffffffffffffffffffffffffffffffff1673ffffffffffffffffffffffffffffffffffffffff166108fc829081150290604051600060405180830381858888f19350505050158015611d01573d6000803e3d6000fd5b50611d0e336103e86124f5565b505b5050565b6000600360008473ffffffffffffffffffffffffffffffffffffffff1673ffffffffffffffffffffffffffffffffffffffff16815260200190815260200160002060008373ffffffffffffffffffffffffffffffffffffffff1673ffffffffffffffffffffffffffffffffffffffff16815260200190815260200160002054905092915050565b600160009054906101000a900473ffffffffffffffffffffffffffffffffffffffff1681565b60008054906101000a900473ffffffffffffffffffffffffffffffffffffffff1673ffffffffffffffffffffffffffffffffffffffff163373ffffffffffffffffffffffffffffffffffffffff1614611e4f576040517f08c379a0000000000000000000000000000000000000000000000000000000008152600401611e4690612fd5565b60405180910390fd5b600073ffffffffffffffffffffffffffffffffffffffff168173ffffffffffffffffffffffffffffffffffffffff161415611ebf576040517f08c379a0000000000000000000000000000000000000000000000000000000008152600401611eb6906138ce565b60405180910390fd5b6000600160009054906101000a900473ffffffffffffffffffffffffffffffffffffffff16905081600160006101000a81548173ffffffffffffffffffffffffffffffffffffffff021916908373ffffffffffffffffffffffffffffffffffffffff160217905550600160009054906101000a900473ffffffffffffffffffffffffffffffffffffffff1673ffffffffffffffffffffffffffffffffffffffff168173ffffffffffffffffffffffffffffffffffffffff167f76563ad561b7036ae716b9b25cb521b21463240f104c97e12f25877f2235f33d60405160405180910390a35050565b806000806101000a81548173ffffffffffffffffffffffffffffffffffffffff021916908373ffffffffffffffffffffffffffffffffffffffff16021790555050565b600033905090565b600073ffffffffffffffffffffffffffffffffffffffff168373ffffffffffffffffffffffffffffffffffffffff161415612062576040517f08c379a000000000000000000000000000000000000000000000000000000000815260040161205990613960565b60405180910390fd5b600073ffffffffffffffffffffffffffffffffffffffff168273ffffffffffffffffffffffffffffffffffffffff1614156120d2576040517f08c379a00000000000000000000000000000000000000000000000000000000081526004016120c9906139f2565b60405180910390fd5b80600360008573ffffffffffffffffffffffffffffffffffffffff1673ffffffffffffffffffffffffffffffffffffffff16815260200190815260200160002060008473ffffffffffffffffffffffffffffffffffffffff1673ffffffffffffffffffffffffffffffffffffffff168152602001908152602001600020819055508173ffffffffffffffffffffffffffffffffffffffff168373ffffffffffffffffffffffffffffffffffffffff167f8c5be1e5ebec7d5bd14f71427d1e84f3dd0314c0f7b2291e5b200ac8c7c3b925836040516121b09190612cbf565b60405180910390a3505050565b600073ffffffffffffffffffffffffffffffffffffffff168373ffffffffffffffffffffffffffffffffffffffff16141561222d576040517f08c379a000000000000000000000000000000000000000000000000000000000815260040161222490613a84565b60405180910390fd5b600073ffffffffffffffffffffffffffffffffffffffff168273ffffffffffffffffffffffffffffffffffffffff16141561229d576040517f08c379a000000000000000000000000000000000000000000000000000000000815260040161229490613b16565b60405180910390fd5b6122a88383836128e3565b6000600260008573ffffffffffffffffffffffffffffffffffffffff1673ffffffffffffffffffffffffffffffffffffffff1681526020019081526020016000205490508181101561232f576040517f08c379a000000000000000000000000000000000000000000000000000000000815260040161232690613ba8565b60405180910390fd5b818103600260008673ffffffffffffffffffffffffffffffffffffffff1673ffffffffffffffffffffffffffffffffffffffff1681526020019081526020016000208190555081600260008573ffffffffffffffffffffffffffffffffffffffff1673ffffffffffffffffffffffffffffffffffffffff16815260200190815260200160002060008282546123c49190613313565b925050819055508273ffffffffffffffffffffffffffffffffffffffff168473ffffffffffffffffffffffffffffffffffffffff167fddf252ad1be2c89b69c2b068fc378daa952ba7f163c4a11628f55a4df523b3ef846040516124289190612cbf565b60405180910390a361243b8484846128e8565b50505050565b6000818361244f9190613bc8565b905092915050565b6000600760008373ffffffffffffffffffffffffffffffffffffffff1673ffffffffffffffffffffffffffffffffffffffff16815260200190815260200160002060006101000a81548160ff0219169083151502179055508073ffffffffffffffffffffffffffffffffffffffff167fe94479a9f7e1952cc78f2d6baab678adc1b772d936c6583def489e524cb6669260405160405180910390a250565b600073ffffffffffffffffffffffffffffffffffffffff168273ffffffffffffffffffffffffffffffffffffffff161415612565576040517f08c379a000000000000000000000000000000000000000000000000000000000815260040161255c90613c48565b60405180910390fd5b612571600083836128e3565b80600460008282546125839190613313565b9250508190555080600260008473ffffffffffffffffffffffffffffffffffffffff1673ffffffffffffffffffffffffffffffffffffffff16815260200190815260200160002060008282546125d99190613313565b925050819055508173ffffffffffffffffffffffffffffffffffffffff16600073ffffffffffffffffffffffffffffffffffffffff167fddf252ad1be2c89b69c2b068fc378daa952ba7f163c4a11628f55a4df523b3ef8360405161263e9190612cbf565b60405180910390a3612652600083836128e8565b5050565b600073ffffffffffffffffffffffffffffffffffffffff168273ffffffffffffffffffffffffffffffffffffffff1614156126c6576040517f08c379a00000000000000000000000000000000000000000000000000000000081526004016126bd90613cda565b60405180910390fd5b6126d2826000836128e3565b6000600260008473ffffffffffffffffffffffffffffffffffffffff1673ffffffffffffffffffffffffffffffffffffffff16815260200190815260200160002054905081811015612759576040517f08c379a000000000000000000000000000000000000000000000000000000000815260040161275090613d6c565b60405180910390fd5b818103600260008573ffffffffffffffffffffffffffffffffffffffff1673ffffffffffffffffffffffffffffffffffffffff1681526020019081526020016000208190555081600460008282546127b19190613bc8565b92505081905550600073ffffffffffffffffffffffffffffffffffffffff168373ffffffffffffffffffffffffffffffffffffffff167fddf252ad1be2c89b69c2b068fc378daa952ba7f163c4a11628f55a4df523b3ef846040516128169190612cbf565b60405180910390a361282a836000846128e8565b505050565b6001600760008373ffffffffffffffffffffffffffffffffffffffff1673ffffffffffffffffffffffffffffffffffffffff16815260200190815260200160002060006101000a81548160ff0219169083151502179055508073ffffffffffffffffffffffffffffffffffffffff167f6ae172837ea30b801fbfcdd4108aa1d5bf8ff775444fd70256b44e6bf3dfc3f660405160405180910390a250565b600081836128db9190613313565b905092915050565b505050565b505050565b8280546128f990613024565b90600052602060002090601f01602090048101928261291b5760008555612962565b82601f1061293457805160ff1916838001178555612962565b82800160010185558215612962579182015b82811115612961578251825591602001919060010190612946565b5b50905061296f9190612973565b5090565b5b8082111561298c576000816000905550600101612974565b5090565b6000604051905090565b600080fd5b600080fd5b600073ffffffffffffffffffffffffffffffffffffffff82169050919050565b60006129cf826129a4565b9050919050565b6129df816129c4565b81146129ea57600080fd5b50565b6000813590506129fc816129d6565b92915050565b600060208284031215612a1857612a1761299a565b5b6000612a26848285016129ed565b91505092915050565b600081519050919050565b600082825260208201905092915050565b60005b83811015612a69578082015181840152602081019050612a4e565b83811115612a78576000848401525b50505050565b6000601f19601f8301169050919050565b6000612a9a82612a2f565b612aa48185612a3a565b9350612ab4818560208601612a4b565b612abd81612a7e565b840191505092915050565b60006020820190508181036000830152612ae28184612a8f565b905092915050565b6000612af5826129a4565b9050919050565b612b0581612aea565b8114612b1057600080fd5b50565b600081359050612b2281612afc565b92915050565b6000819050919050565b612b3b81612b28565b8114612b4657600080fd5b50565b600081359050612b5881612b32565b92915050565b60008060408385031215612b7557612b7461299a565b5b6000612b8385828601612b13565b9250506020612b9485828601612b49565b9150509250929050565b60008115159050919050565b612bb381612b9e565b82525050565b6000602082019050612bce6000830184612baa565b92915050565b612bdd81612aea565b82525050565b6000602082019050612bf86000830184612bd4565b92915050565b600060208284031215612c1457612c1361299a565b5b6000612c2284828501612b49565b91505092915050565b612c34816129c4565b82525050565b612c4381612b28565b82525050565b600060e082019050612c5e600083018a612c2b565b8181036020830152612c708189612a8f565b9050612c7f6040830188612c3a565b612c8c6060830187612c3a565b612c996080830186612c3a565b612ca660a0830185612c3a565b612cb360c0830184612baa565b98975050505050505050565b6000602082019050612cd46000830184612c3a565b92915050565b600080600060608486031215612cf357612cf261299a565b5b6000612d0186828701612b13565b9350506020612d1286828701612b13565b9250506040612d2386828701612b49565b9150509250925092565b600060208284031215612d4357612d4261299a565b5b6000612d5184828501612b13565b91505092915050565b600060ff82169050919050565b612d7081612d5a565b82525050565b6000602082019050612d8b6000830184612d67565b92915050565b600080fd5b600080fd5b7f4e487b7100000000000000000000000000000000000000000000000000000000600052604160045260246000fd5b612dd382612a7e565b810181811067ffffffffffffffff82111715612df257612df1612d9b565b5b80604052505050565b6000612e05612990565b9050612e118282612dca565b919050565b600067ffffffffffffffff821115612e3157612e30612d9b565b5b612e3a82612a7e565b9050602081019050919050565b82818337600083830152505050565b6000612e69612e6484612e16565b612dfb565b905082815260208101848484011115612e8557612e84612d96565b5b612e90848285612e47565b509392505050565b600082601f830112612ead57612eac612d91565b5b8135612ebd848260208601612e56565b91505092915050565b60008060008060808587031215612ee057612edf61299a565b5b6000612eee878288016129ed565b945050602085013567ffffffffffffffff811115612f0f57612f0e61299f565b5b612f1b87828801612e98565b9350506040612f2c87828801612b49565b9250506060612f3d87828801612b49565b91505092959194509250565b60008060408385031215612f6057612f5f61299a565b5b6000612f6e85828601612b13565b9250506020612f7f85828601612b13565b9150509250929050565b7f4f6e6c7920476f7665726e6f722063616e2063616c6c00000000000000000000600082015250565b6000612fbf601683612a3a565b9150612fca82612f89565b602082019050919050565b60006020820190508181036000830152612fee81612fb2565b9050919050565b7f4e487b7100000000000000000000000000000000000000000000000000000000600052602260045260246000fd5b6000600282049050600182168061303c57607f821691505b602082108114156130505761304f612ff5565b5b50919050565b7f45524332303a207472616e7366657220616d6f756e742065786365656473206160008201527f6c6c6f77616e6365000000000000000000000000000000000000000000000000602082015250565b60006130b2602883612a3a565b91506130bd82613056565b604082019050919050565b600060208201905081810360008301526130e1816130a5565b9050919050565b7f43616d706169676e4944206973206e6f7420636f727265637421000000000000600082015250565b600061311e601a83612a3a565b9150613129826130e8565b602082019050919050565b6000602082019050818103600083015261314d81613111565b9050919050565b7f43616d706169676e206973207374696c6c20696e2070726f6772657373210000600082015250565b600061318a601e83612a3a565b915061319582613154565b602082019050919050565b600060208201905081810360008301526131b98161317d565b9050919050565b7f43616d706169676e20686173206265656e207375636365737366756c6c79206360008201527f6f6d706c65746564210000000000000000000000000000000000000000000000602082015250565b600061321c602983612a3a565b9150613227826131c0565b604082019050919050565b6000602082019050818103600083015261324b8161320f565b9050919050565b7f596f752068617665206265656e20616c726561647920726566756e646564206f60008201527f7220796f7520617265206e6f7420612066756e64657221000000000000000000602082015250565b60006132ae603783612a3a565b91506132b982613252565b604082019050919050565b600060208201905081810360008301526132dd816132a1565b9050919050565b7f4e487b7100000000000000000000000000000000000000000000000000000000600052601160045260246000fd5b600061331e82612b28565b915061332983612b28565b9250827fffffffffffffffffffffffffffffffffffffffffffffffffffffffffffffffff0382111561335e5761335d6132e4565b5b828201905092915050565b7f4f6e6c79206d696e7465722063616e2063616c6c000000000000000000000000600082015250565b600061339f601483612a3a565b91506133aa82613369565b602082019050919050565b600060208201905081810360008301526133ce81613392565b9050919050565b7f43616c6c6572206d7573742062652070656e64696e6720676f7665726e6f7200600082015250565b600061340b601f83612a3a565b9150613416826133d5565b602082019050919050565b6000602082019050818103600083015261343a816133fe565b9050919050565b7f45524332303a206275726e20616d6f756e74206578636565647320616c6c6f7760008201527f616e636500000000000000000000000000000000000000000000000000000000602082015250565b600061349d602483612a3a565b91506134a882613441565b604082019050919050565b600060208201905081810360008301526134cc81613490565b9050919050565b7f5a65726f206164647265737320656e7465726564210000000000000000000000600082015250565b6000613509601583612a3a565b9150613514826134d3565b602082019050919050565b60006020820190508181036000830152613538816134fc565b9050919050565b7f476f616c2068617320746f206265206120706f7369746976652076616c756500600082015250565b6000613575601f83612a3a565b91506135808261353f565b602082019050919050565b600060208201905081810360008301526135a481613568565b9050919050565b7f53657420612066757475726520646561646c696e652100000000000000000000600082015250565b60006135e1601683612a3a565b91506135ec826135ab565b602082019050919050565b60006020820190508181036000830152613610816135d4565b9050919050565b600061362282612b28565b91507fffffffffffffffffffffffffffffffffffffffffffffffffffffffffffffffff821415613655576136546132e4565b5b600182019050919050565b7f45524332303a2064656372656173656420616c6c6f77616e63652062656c6f7760008201527f207a65726f000000000000000000000000000000000000000000000000000000602082015250565b60006136bc602583612a3a565b91506136c782613660565b604082019050919050565b600060208201905081810360008301526136eb816136af565b9050919050565b7f43616d706169676e20686173206265656e20616c726561647920636f6d706c6560008201527f7465642100000000000000000000000000000000000000000000000000000000602082015250565b600061374e602483612a3a565b9150613759826136f2565b604082019050919050565b6000602082019050818103600083015261377d81613741565b9050919050565b7f43616d7061696e674944206973206e6f7420636f727265637421000000000000600082015250565b60006137ba601a83612a3a565b91506137c582613784565b602082019050919050565b600060208201905081810360008301526137e9816137ad565b9050919050565b7f446561646c696e652068617320616c7265616479206265656e2072656163686560008201527f6421000000000000000000000000000000000000000000000000000000000000602082015250565b600061384c602283612a3a565b9150613857826137f0565b604082019050919050565b6000602082019050818103600083015261387b8161383f565b9050919050565b7f476f7665726e6f72206d75737420626520736574000000000000000000000000600082015250565b60006138b8601483612a3a565b91506138c382613882565b602082019050919050565b600060208201905081810360008301526138e7816138ab565b9050919050565b7f45524332303a20617070726f76652066726f6d20746865207a65726f2061646460008201527f7265737300000000000000000000000000000000000000000000000000000000602082015250565b600061394a602483612a3a565b9150613955826138ee565b604082019050919050565b600060208201905081810360008301526139798161393d565b9050919050565b7f45524332303a20617070726f766520746f20746865207a65726f20616464726560008201527f7373000000000000000000000000000000000000000000000000000000000000602082015250565b60006139dc602283612a3a565b91506139e782613980565b604082019050919050565b60006020820190508181036000830152613a0b816139cf565b9050919050565b7f45524332303a207472616e736665722066726f6d20746865207a65726f20616460008201527f6472657373000000000000000000000000000000000000000000000000000000602082015250565b6000613a6e602583612a3a565b9150613a7982613a12565b604082019050919050565b60006020820190508181036000830152613a9d81613a61565b9050919050565b7f45524332303a207472616e7366657220746f20746865207a65726f206164647260008201527f6573730000000000000000000000000000000000000000000000000000000000602082015250565b6000613b00602383612a3a565b9150613b0b82613aa4565b604082019050919050565b60006020820190508181036000830152613b2f81613af3565b9050919050565b7f45524332303a207472616e7366657220616d6f756e742065786365656473206260008201527f616c616e63650000000000000000000000000000000000000000000000000000602082015250565b6000613b92602683612a3a565b9150613b9d82613b36565b604082019050919050565b60006020820190508181036000830152613bc181613b85565b9050919050565b6000613bd382612b28565b9150613bde83612b28565b925082821015613bf157613bf06132e4565b5b828203905092915050565b7f45524332303a206d696e7420746f20746865207a65726f206164647265737300600082015250565b6000613c32601f83612a3a565b9150613c3d82613bfc565b602082019050919050565b60006020820190508181036000830152613c6181613c25565b9050919050565b7f45524332303a206275726e2066726f6d20746865207a65726f2061646472657360008201527f7300000000000000000000000000000000000000000000000000000000000000602082015250565b6000613cc4602183612a3a565b9150613ccf82613c68565b604082019050919050565b60006020820190508181036000830152613cf381613cb7565b9050919050565b7f45524332303a206275726e20616d6f756e7420657863656564732062616c616e60008201527f6365000000000000000000000000000000000000000000000000000000000000602082015250565b6000613d56602283612a3a565b9150613d6182613cfa565b604082019050919050565b60006020820190508181036000830152613d8581613d49565b905091905056fea26469706673582212202c3f734fed61809c204349935cb298face73869bd350e43ff393df664bfa969d64736f6c634300080b0033",
  "immutableReferences": {},
  "source": "//SPDX-License-Identifier: UNLICENSED\r\n\r\npragma solidity ^0.8.0;\r\n\r\n/// @title Crowdfunding platform\r\n/// @author Riccardo Magni\r\n/// @notice This contract was created for educational purpose, its reliability is not guaranteed\r\n/// @dev All functions calls are currently implemented without side effects\r\n\r\n\r\nimport \"./ERC20.sol\";\r\nimport \"./Governed.sol\";\r\nimport \"./ERC20Burnable.sol\";\r\nimport \"./SafeMath.sol\";\r\n\r\n/**\r\n * @title Crowd Token contract\r\n * @dev This is the implementation of the ERC20 CWD Token.\r\n *\r\n * The token is initially owned by the deployer address that can mint tokens to create the initial\r\n * distribution. For convenience, an initial supply can be passed in the constructor that will be\r\n * assigned to the deployer.\r\n *\r\n */\r\ncontract CWDToken is Governed, ERC20, ERC20Burnable {\r\n\r\n    // -- State --\r\n    mapping(address => bool) private _minters;\r\n    mapping(address => uint256) public nonces;\r\n\r\n    // -- Events --\r\n    event MinterAdded(address indexed account);\r\n    event MinterRemoved(address indexed account);\r\n    event Mint(address indexed minter, address indexed to, uint256 indexed amount);\r\n\r\n    // -- Modifier --\r\n    modifier onlyMinter() {\r\n        require(isMinter(msg.sender), \"Only minter can call\");\r\n        _;\r\n    }\r\n\r\n    /**\r\n     * @dev Crowd Token Contract Constructor.\r\n     * @param _initialSupply Initial supply of CWD\r\n     */\r\n    constructor(uint256 _initialSupply) ERC20(\"Crowd Token\", \"CWD\") {\r\n        Governed._initialize(msg.sender);\r\n\r\n        // The Governor has the initial supply of tokens\r\n        _mint(msg.sender, _initialSupply);\r\n\r\n        // The Governor is the default minter\r\n        _addMinter(msg.sender);\r\n\r\n    }\r\n\r\n\r\n    /**\r\n     * @dev Add a new minter.\r\n     * @param _account Address of the minter\r\n     */\r\n    function addMinter(address _account) external onlyGovernor {\r\n        _addMinter(_account);\r\n    }\r\n\r\n    /**\r\n     * @dev Remove a minter.\r\n     * @param _account Address of the minter\r\n     */\r\n    function removeMinter(address _account) external onlyGovernor {\r\n        _removeMinter(_account);\r\n    }\r\n\r\n    /**\r\n     * @dev Renounce to be a minter.\r\n     */\r\n    function renounceMinter() external {\r\n        _removeMinter(msg.sender);\r\n    }\r\n\r\n    /**\r\n     * @dev Mint new tokens.\r\n     * @param _to Address to send the newly minted tokens\r\n     * @param _amount Amount of tokens to mint\r\n     */\r\n    function mint(address _to, uint256 _amount) external onlyMinter {\r\n        _mint(_to, _amount);\r\n        emit Mint(msg.sender, _to, _amount);\r\n    }\r\n\r\n    /**\r\n     * @dev Return if the `_account` is a minter or not.\r\n     * @param _account Address to check\r\n     * @return True if the `_account` is minter\r\n     */\r\n    function isMinter(address _account) public view returns (bool) {\r\n        return _minters[_account];\r\n    }\r\n\r\n    /**\r\n     * @dev Add a new minter.\r\n     * @param _account Address of the minter\r\n     */\r\n    function _addMinter(address _account) private {\r\n        _minters[_account] = true;\r\n        emit MinterAdded(_account);\r\n    }\r\n\r\n    /**\r\n     * @dev Remove a minter.\r\n     * @param _account Address of the minter\r\n     */\r\n    function _removeMinter(address _account) private {\r\n        _minters[_account] = false;\r\n        emit MinterRemoved(_account);\r\n    }\r\n\r\n}\r\n\r\n/**\r\n* @title Crowdfunding platform contract\r\n* @dev This is the implementation of the the crowdfunding platform associated with CWD token.\r\n*/\r\n\r\ncontract CrowdFunding is CWDToken {\r\n\r\n    /// @dev Wrappers over Solidity's arithmetic operations with added overflow checks\r\n    using SafeMath for uint;\r\n\r\n    // -- State --\r\n    struct Campaign {\r\n        address payable beneficiary;\r\n        string description;\r\n        uint fundingGoal;\r\n        uint deadline;\r\n        uint numFunders;\r\n        uint amount;\r\n        mapping (address => uint) funders;\r\n        bool completed;\r\n    }\r\n\r\n    uint public numCampaigns;\r\n    mapping (uint => Campaign) public campaigns;\r\n\r\n    uint public minPeriodOfDeadline;\r\n\r\n    // -- Events --\r\n    event NewCampaignCreated(uint indexed campaignID, address indexed beneficiary, uint indexed deadline, uint amount);\r\n    event NewContribution(address indexed from, uint indexed campaignID, uint indexed amountFunded);\r\n    event Refund(address indexed refunded, uint indexed amount, uint indexed campaignID);\r\n    event GoalReached(uint indexed campaignID, uint indexed timestamp);\r\n    event OfferReceived(address indexed from, uint indexed amount);\r\n\r\n    /**\r\n     * @dev Crowdfunding Contract Constructor.\r\n     * @param _initialSupply Initial supply of CWD\r\n     * @param _minPeriodOfDeadline Minimum period before the deadline of a campaign\r\n     */\r\n    constructor (uint _initialSupply, uint _minPeriodOfDeadline) CWDToken (_initialSupply) {\r\n\r\n        // Set minPeriodOfDeadline to discourage creation of fake campaigns only to get token\r\n        minPeriodOfDeadline = _minPeriodOfDeadline;\r\n\r\n    }\r\n\r\n    /**\r\n     * @dev Add a new campaign\r\n     * @param _beneficiary Beneficiary of the campaign\r\n     * @param _description Description of the campaign\r\n     * @param _goal Target of the campaign to be reached\r\n     * @param _deadline Deadline of the campaign\r\n     * @return The uint of the campaign ID associated with the campaign just created\r\n     */\r\n    function newCampaign(address payable _beneficiary, string memory _description, uint _goal, uint _deadline) public returns (uint) {\r\n\r\n        require(_beneficiary != address(0), \"Zero address entered!\");\r\n        require(_goal > 0, \"Goal has to be a positive value\");\r\n        require(_deadline > block.timestamp, \"Set a future deadline!\");\r\n        require(_deadline.sub(block.timestamp) > minPeriodOfDeadline, \"Set a future deadline!\");\r\n\r\n        uint campaignID = numCampaigns++;\r\n        Campaign storage c = campaigns[campaignID];\r\n        c.beneficiary = _beneficiary;\r\n        c.description = _description;\r\n        c.fundingGoal = _goal;\r\n        c.deadline = _deadline;\r\n\r\n        emit NewCampaignCreated(campaignID, c.beneficiary, c.amount, c.deadline);\r\n\r\n        return campaignID;\r\n    }\r\n\r\n    /**\r\n     * @dev Contribute to a campaign\r\n     * @param campaignID ID associated with the campaign\r\n     */\r\n    function contribute(uint campaignID) public payable {\r\n        Campaign storage c = campaigns[campaignID];\r\n        require(c.completed == false, \"Campaign has been already completed!\");\r\n        require(c.fundingGoal > 0, \"CampaingID is not correct!\");\r\n        require(c.deadline > block.timestamp, \"Deadline has already been reached!\");\r\n\r\n        if(c.funders[msg.sender] == 0) {\r\n            c.numFunders++;\r\n        }\r\n\r\n        c.funders[msg.sender] = c.funders[msg.sender].add(msg.value);\r\n        c.amount = c.amount.add(msg.value);\r\n\r\n        emit NewContribution(msg.sender, campaignID, msg.value);\r\n\r\n        // Reward funder with CWD tokens\r\n        ERC20._mint(msg.sender, msg.value);\r\n\r\n        // Check if goal of the campaign has been reached\r\n        // and if it happened, send amount to its beneficiary\r\n        if(checkGoalReached(campaignID)) {\r\n            uint amount = c.amount;\r\n            c.amount = 0;\r\n            c.completed = true;\r\n            c.beneficiary.transfer(amount);\r\n\r\n            // Reward funder who made the campaign reach the goal with further CWD tokens\r\n            ERC20._mint(msg.sender, 1000);\r\n        }\r\n    }\r\n\r\n    /**\r\n     * @dev Check if the goal of the campaign has been reached\r\n     * @param campaignID ID associated with the campaign\r\n     * @return True if amount reached is more or equal to the goal of the campaign, otherwise false\r\n     */\r\n    function checkGoalReached(uint campaignID) public returns (bool) {\r\n        Campaign storage c = campaigns[campaignID];\r\n        if (c.completed == true) {\r\n            return true;\r\n        }\r\n        else if (c.amount < c.fundingGoal) {\r\n            return false;\r\n        }\r\n        else\r\n        {\r\n            emit GoalReached(campaignID, block.timestamp);\r\n            return true;\r\n        }\r\n\r\n    }\r\n\r\n    /**\r\n     * @dev Refund contributors if the campaign has failed\r\n     * @param campaignID ID associated with the campaign\r\n     */\r\n    function refund(uint campaignID) public {\r\n\r\n        Campaign storage c = campaigns[campaignID];\r\n\r\n        require(c.fundingGoal > 0, \"CampaignID is not correct!\");\r\n        require(block.timestamp > c.deadline, \"Campaign is still in progress!\");\r\n        require(c.completed == false, \"Campaign has been successfully completed!\");\r\n        require(c.funders[msg.sender] > 0, \"You have been already refunded or you are not a funder!\");\r\n\r\n        uint amountFunded = c.funders[msg.sender];\r\n        c.funders[msg.sender] = 0;\r\n        c.amount = c.amount.sub(amountFunded);\r\n        payable(msg.sender).transfer(amountFunded);\r\n\r\n        emit Refund(msg.sender, amountFunded, campaignID);\r\n    }\r\n\r\n    /**\r\n     * @dev Permit the governor to transfer value stored in the contract\r\n     * @param _recipient Recipient of sent value\r\n     */\r\n    function collect(address payable _recipient) public onlyGovernor {\r\n        _recipient.transfer(address(this).balance);\r\n    }\r\n\r\n    /**\r\n     * @dev Fallback function: hold sent value in the contract\r\n     */\r\n    receive() external payable {\r\n        emit OfferReceived(msg.sender, msg.value);\r\n    }\r\n\r\n}\r\n",
  "sourcePath": "C:\\Users\\Utente\\Desktop\\contracts-test\\contracts\\Crowdfunding.sol",
  "compiler": {
    "name": "solc",
    "version": "0.8.11+commit.d7f03943.Emscripten.clang"
  },
  "schemaVersion": "3.4.4",
  "updatedAt": "2022-02-07T09:45:33.833Z",
  "networkType": "ethereum",
  "devdoc": {
    "details": "This is the implementation of the the crowdfunding platform associated with CWD token.",
    "kind": "dev",
    "methods": {
      "acceptOwnership()": {
        "details": "Admin function for pending governor to accept role and update governor. This function must called by the pending governor."
      },
      "addMinter(address)": {
        "details": "Add a new minter.",
        "params": {
          "_account": "Address of the minter"
        }
      },
      "allowance(address,address)": {
        "details": "See {IERC20-allowance}."
      },
      "approve(address,uint256)": {
        "details": "See {IERC20-approve}. NOTE: If `amount` is the maximum `uint256`, the allowance is not updated on `transferFrom`. This is semantically equivalent to an infinite approval. Requirements: - `spender` cannot be the zero address."
      },
      "balanceOf(address)": {
        "details": "See {IERC20-balanceOf}."
      },
      "burn(uint256)": {
        "details": "Destroys `amount` tokens from the caller. See {ERC20-_burn}."
      },
      "burnFrom(address,uint256)": {
        "details": "Destroys `amount` tokens from `account`, deducting from the caller's allowance. See {ERC20-_burn} and {ERC20-allowance}. Requirements: - the caller must have allowance for ``accounts``'s tokens of at least `amount`."
      },
      "checkGoalReached(uint256)": {
        "details": "Check if the goal of the campaign has been reached",
        "params": {
          "campaignID": "ID associated with the campaign"
        },
        "returns": {
          "_0": "True if amount reached is more or equal to the goal of the campaign, otherwise false"
        }
      },
      "collect(address)": {
        "details": "Permit the governor to transfer value stored in the contract",
        "params": {
          "_recipient": "Recipient of sent value"
        }
      },
      "constructor": {
        "details": "Crowdfunding Contract Constructor.",
        "params": {
          "_initialSupply": "Initial supply of CWD",
          "_minPeriodOfDeadline": "Minimum period before the deadline of a campaign"
        }
      },
      "contribute(uint256)": {
        "details": "Contribute to a campaign",
        "params": {
          "campaignID": "ID associated with the campaign"
        }
      },
      "decimals()": {
        "details": "Returns the number of decimals used to get its user representation. For example, if `decimals` equals `2`, a balance of `505` tokens should be displayed to a user as `5.05` (`505 / 10 ** 2`). Tokens usually opt for a value of 18, imitating the relationship between Ether and Wei. This is the value {ERC20} uses, unless this function is overridden; NOTE: This information is only used for _display_ purposes: it in no way affects any of the arithmetic of the contract, including {IERC20-balanceOf} and {IERC20-transfer}."
      },
      "decreaseAllowance(address,uint256)": {
        "details": "Atomically decreases the allowance granted to `spender` by the caller. This is an alternative to {approve} that can be used as a mitigation for problems described in {IERC20-approve}. Emits an {Approval} event indicating the updated allowance. Requirements: - `spender` cannot be the zero address. - `spender` must have allowance for the caller of at least `subtractedValue`."
      },
      "increaseAllowance(address,uint256)": {
        "details": "Atomically increases the allowance granted to `spender` by the caller. This is an alternative to {approve} that can be used as a mitigation for problems described in {IERC20-approve}. Emits an {Approval} event indicating the updated allowance. Requirements: - `spender` cannot be the zero address."
      },
      "isMinter(address)": {
        "details": "Return if the `_account` is a minter or not.",
        "params": {
          "_account": "Address to check"
        },
        "returns": {
          "_0": "True if the `_account` is minter"
        }
      },
      "mint(address,uint256)": {
        "details": "Mint new tokens.",
        "params": {
          "_amount": "Amount of tokens to mint",
          "_to": "Address to send the newly minted tokens"
        }
      },
      "name()": {
        "details": "Returns the name of the token."
      },
      "newCampaign(address,string,uint256,uint256)": {
        "details": "Add a new campaign",
        "params": {
          "_beneficiary": "Beneficiary of the campaign",
          "_deadline": "Deadline of the campaign",
          "_description": "Description of the campaign",
          "_goal": "Target of the campaign to be reached"
        },
        "returns": {
          "_0": "The uint of the campaign ID associated with the campaign just created"
        }
      },
      "refund(uint256)": {
        "details": "Refund contributors if the campaign has failed",
        "params": {
          "campaignID": "ID associated with the campaign"
        }
      },
      "removeMinter(address)": {
        "details": "Remove a minter.",
        "params": {
          "_account": "Address of the minter"
        }
      },
      "renounceMinter()": {
        "details": "Renounce to be a minter."
      },
      "symbol()": {
        "details": "Returns the symbol of the token, usually a shorter version of the name."
      },
      "totalSupply()": {
        "details": "See {IERC20-totalSupply}."
      },
      "transfer(address,uint256)": {
        "details": "See {IERC20-transfer}. Requirements: - `recipient` cannot be the zero address. - the caller must have a balance of at least `amount`."
      },
      "transferFrom(address,address,uint256)": {
        "details": "See {IERC20-transferFrom}. Emits an {Approval} event indicating the updated allowance. This is not required by the EIP. See the note at the beginning of {ERC20}. NOTE: Does not update the allowance if the current allowance is the maximum `uint256`. Requirements: - `sender` and `recipient` cannot be the zero address. - `sender` must have a balance of at least `amount`. - the caller must have allowance for ``sender``'s tokens of at least `amount`."
      },
      "transferOwnership(address)": {
        "details": "Admin function to begin change of governor. The `_newGovernor` must call `acceptOwnership` to finalize the transfer.",
        "params": {
          "_newGovernor": "Address of new `governor`"
        }
      }
    },
    "title": "Crowdfunding platform contract",
    "version": 1
  },
  "userdoc": {
    "kind": "user",
    "methods": {},
    "version": 1
  }
}