{
  "contractName": "CWDToken",
  "abi": [
    {
      "inputs": [
        {
          "internalType": "uint256",
          "name": "_initialSupply",
          "type": "uint256"
        }
      ],
      "stateMutability": "nonpayable",
      "type": "constructor"
    },
    {
      "anonymous": false,
      "inputs": [
        {
          "indexed": true,
          "internalType": "address",
          "name": "owner",
          "type": "address"
        },
        {
          "indexed": true,
          "internalType": "address",
          "name": "spender",
          "type": "address"
        },
        {
          "indexed": false,
          "internalType": "uint256",
          "name": "value",
          "type": "uint256"
        }
      ],
      "name": "Approval",
      "type": "event"
    },
    {
      "anonymous": false,
      "inputs": [
        {
          "indexed": true,
          "internalType": "address",
          "name": "minter",
          "type": "address"
        },
        {
          "indexed": true,
          "internalType": "address",
          "name": "to",
          "type": "address"
        },
        {
          "indexed": true,
          "internalType": "uint256",
          "name": "amount",
          "type": "uint256"
        }
      ],
      "name": "Mint",
      "type": "event"
    },
    {
      "anonymous": false,
      "inputs": [
        {
          "indexed": true,
          "internalType": "address",
          "name": "account",
          "type": "address"
        }
      ],
      "name": "MinterAdded",
      "type": "event"
    },
    {
      "anonymous": false,
      "inputs": [
        {
          "indexed": true,
          "internalType": "address",
          "name": "account",
          "type": "address"
        }
      ],
      "name": "MinterRemoved",
      "type": "event"
    },
    {
      "anonymous": false,
      "inputs": [
        {
          "indexed": true,
          "internalType": "address",
          "name": "from",
          "type": "address"
        },
        {
          "indexed": true,
          "internalType": "address",
          "name": "to",
          "type": "address"
        }
      ],
      "name": "NewOwnership",
      "type": "event"
    },
    {
      "anonymous": false,
      "inputs": [
        {
          "indexed": true,
          "internalType": "address",
          "name": "from",
          "type": "address"
        },
        {
          "indexed": true,
          "internalType": "address",
          "name": "to",
          "type": "address"
        }
      ],
      "name": "NewPendingOwnership",
      "type": "event"
    },
    {
      "anonymous": false,
      "inputs": [
        {
          "indexed": true,
          "internalType": "address",
          "name": "from",
          "type": "address"
        },
        {
          "indexed": true,
          "internalType": "address",
          "name": "to",
          "type": "address"
        },
        {
          "indexed": false,
          "internalType": "uint256",
          "name": "value",
          "type": "uint256"
        }
      ],
      "name": "Transfer",
      "type": "event"
    },
    {
      "inputs": [],
      "name": "acceptOwnership",
      "outputs": [],
      "stateMutability": "nonpayable",
      "type": "function"
    },
    {
      "inputs": [
        {
          "internalType": "address",
          "name": "owner",
          "type": "address"
        },
        {
          "internalType": "address",
          "name": "spender",
          "type": "address"
        }
      ],
      "name": "allowance",
      "outputs": [
        {
          "internalType": "uint256",
          "name": "",
          "type": "uint256"
        }
      ],
      "stateMutability": "view",
      "type": "function"
    },
    {
      "inputs": [
        {
          "internalType": "address",
          "name": "spender",
          "type": "address"
        },
        {
          "internalType": "uint256",
          "name": "amount",
          "type": "uint256"
        }
      ],
      "name": "approve",
      "outputs": [
        {
          "internalType": "bool",
          "name": "",
          "type": "bool"
        }
      ],
      "stateMutability": "nonpayable",
      "type": "function"
    },
    {
      "inputs": [
        {
          "internalType": "address",
          "name": "account",
          "type": "address"
        }
      ],
      "name": "balanceOf",
      "outputs": [
        {
          "internalType": "uint256",
          "name": "",
          "type": "uint256"
        }
      ],
      "stateMutability": "view",
      "type": "function"
    },
    {
      "inputs": [
        {
          "internalType": "uint256",
          "name": "amount",
          "type": "uint256"
        }
      ],
      "name": "burn",
      "outputs": [],
      "stateMutability": "nonpayable",
      "type": "function"
    },
    {
      "inputs": [
        {
          "internalType": "address",
          "name": "account",
          "type": "address"
        },
        {
          "internalType": "uint256",
          "name": "amount",
          "type": "uint256"
        }
      ],
      "name": "burnFrom",
      "outputs": [],
      "stateMutability": "nonpayable",
      "type": "function"
    },
    {
      "inputs": [],
      "name": "decimals",
      "outputs": [
        {
          "internalType": "uint8",
          "name": "",
          "type": "uint8"
        }
      ],
      "stateMutability": "view",
      "type": "function"
    },
    {
      "inputs": [
        {
          "internalType": "address",
          "name": "spender",
          "type": "address"
        },
        {
          "internalType": "uint256",
          "name": "subtractedValue",
          "type": "uint256"
        }
      ],
      "name": "decreaseAllowance",
      "outputs": [
        {
          "internalType": "bool",
          "name": "",
          "type": "bool"
        }
      ],
      "stateMutability": "nonpayable",
      "type": "function"
    },
    {
      "inputs": [],
      "name": "governor",
      "outputs": [
        {
          "internalType": "address",
          "name": "",
          "type": "address"
        }
      ],
      "stateMutability": "view",
      "type": "function"
    },
    {
      "inputs": [
        {
          "internalType": "address",
          "name": "spender",
          "type": "address"
        },
        {
          "internalType": "uint256",
          "name": "addedValue",
          "type": "uint256"
        }
      ],
      "name": "increaseAllowance",
      "outputs": [
        {
          "internalType": "bool",
          "name": "",
          "type": "bool"
        }
      ],
      "stateMutability": "nonpayable",
      "type": "function"
    },
    {
      "inputs": [],
      "name": "name",
      "outputs": [
        {
          "internalType": "string",
          "name": "",
          "type": "string"
        }
      ],
      "stateMutability": "view",
      "type": "function"
    },
    {
      "inputs": [
        {
          "internalType": "address",
          "name": "",
          "type": "address"
        }
      ],
      "name": "nonces",
      "outputs": [
        {
          "internalType": "uint256",
          "name": "",
          "type": "uint256"
        }
      ],
      "stateMutability": "view",
      "type": "function"
    },
    {
      "inputs": [],
      "name": "pendingGovernor",
      "outputs": [
        {
          "internalType": "address",
          "name": "",
          "type": "address"
        }
      ],
      "stateMutability": "view",
      "type": "function"
    },
    {
      "inputs": [],
      "name": "symbol",
      "outputs": [
        {
          "internalType": "string",
          "name": "",
          "type": "string"
        }
      ],
      "stateMutability": "view",
      "type": "function"
    },
    {
      "inputs": [],
      "name": "totalSupply",
      "outputs": [
        {
          "internalType": "uint256",
          "name": "",
          "type": "uint256"
        }
      ],
      "stateMutability": "view",
      "type": "function"
    },
    {
      "inputs": [
        {
          "internalType": "address",
          "name": "recipient",
          "type": "address"
        },
        {
          "internalType": "uint256",
          "name": "amount",
          "type": "uint256"
        }
      ],
      "name": "transfer",
      "outputs": [
        {
          "internalType": "bool",
          "name": "",
          "type": "bool"
        }
      ],
      "stateMutability": "nonpayable",
      "type": "function"
    },
    {
      "inputs": [
        {
          "internalType": "address",
          "name": "sender",
          "type": "address"
        },
        {
          "internalType": "address",
          "name": "recipient",
          "type": "address"
        },
        {
          "internalType": "uint256",
          "name": "amount",
          "type": "uint256"
        }
      ],
      "name": "transferFrom",
      "outputs": [
        {
          "internalType": "bool",
          "name": "",
          "type": "bool"
        }
      ],
      "stateMutability": "nonpayable",
      "type": "function"
    },
    {
      "inputs": [
        {
          "internalType": "address",
          "name": "_newGovernor",
          "type": "address"
        }
      ],
      "name": "transferOwnership",
      "outputs": [],
      "stateMutability": "nonpayable",
      "type": "function"
    },
    {
      "inputs": [
        {
          "internalType": "address",
          "name": "_account",
          "type": "address"
        }
      ],
      "name": "addMinter",
      "outputs": [],
      "stateMutability": "nonpayable",
      "type": "function"
    },
    {
      "inputs": [
        {
          "internalType": "address",
          "name": "_account",
          "type": "address"
        }
      ],
      "name": "removeMinter",
      "outputs": [],
      "stateMutability": "nonpayable",
      "type": "function"
    },
    {
      "inputs": [],
      "name": "renounceMinter",
      "outputs": [],
      "stateMutability": "nonpayable",
      "type": "function"
    },
    {
      "inputs": [
        {
          "internalType": "address",
          "name": "_to",
          "type": "address"
        },
        {
          "internalType": "uint256",
          "name": "_amount",
          "type": "uint256"
        }
      ],
      "name": "mint",
      "outputs": [],
      "stateMutability": "nonpayable",
      "type": "function"
    },
    {
      "inputs": [
        {
          "internalType": "address",
          "name": "_account",
          "type": "address"
        }
      ],
      "name": "isMinter",
      "outputs": [
        {
          "internalType": "bool",
          "name": "",
          "type": "bool"
        }
      ],
      "stateMutability": "view",
      "type": "function"
    }
  ],
  "bytecode": "0x60806040523480156200001157600080fd5b5060405162002d2a38038062002d2a83398181016040528101906200003791906200046c565b6040518060400160405280600b81526020017f43726f776420546f6b656e0000000000000000000000000000000000000000008152506040518060400160405280600381526020017f43574400000000000000000000000000000000000000000000000000000000008152508160059080519060200190620000bb9291906200037c565b508060069080519060200190620000d49291906200037c565b505050620000ed336200011760201b6200115e1760201c565b620000ff33826200015a60201b60201c565b6200011033620002d460201b60201c565b5062000640565b806000806101000a81548173ffffffffffffffffffffffffffffffffffffffff021916908373ffffffffffffffffffffffffffffffffffffffff16021790555050565b600073ffffffffffffffffffffffffffffffffffffffff168273ffffffffffffffffffffffffffffffffffffffff161415620001cd576040517f08c379a0000000000000000000000000000000000000000000000000000000008152600401620001c490620004ff565b60405180910390fd5b620001e1600083836200037260201b60201c565b8060046000828254620001f5919062000550565b9250508190555080600260008473ffffffffffffffffffffffffffffffffffffffff1673ffffffffffffffffffffffffffffffffffffffff16815260200190815260200160002060008282546200024d919062000550565b925050819055508173ffffffffffffffffffffffffffffffffffffffff16600073ffffffffffffffffffffffffffffffffffffffff167fddf252ad1be2c89b69c2b068fc378daa952ba7f163c4a11628f55a4df523b3ef83604051620002b49190620005be565b60405180910390a3620002d0600083836200037760201b60201c565b5050565b6001600760008373ffffffffffffffffffffffffffffffffffffffff1673ffffffffffffffffffffffffffffffffffffffff16815260200190815260200160002060006101000a81548160ff0219169083151502179055508073ffffffffffffffffffffffffffffffffffffffff167f6ae172837ea30b801fbfcdd4108aa1d5bf8ff775444fd70256b44e6bf3dfc3f660405160405180910390a250565b505050565b505050565b8280546200038a906200060a565b90600052602060002090601f016020900481019282620003ae5760008555620003fa565b82601f10620003c957805160ff1916838001178555620003fa565b82800160010185558215620003fa579182015b82811115620003f9578251825591602001919060010190620003dc565b5b5090506200040991906200040d565b5090565b5b80821115620004285760008160009055506001016200040e565b5090565b600080fd5b6000819050919050565b620004468162000431565b81146200045257600080fd5b50565b60008151905062000466816200043b565b92915050565b6000602082840312156200048557620004846200042c565b5b6000620004958482850162000455565b91505092915050565b600082825260208201905092915050565b7f45524332303a206d696e7420746f20746865207a65726f206164647265737300600082015250565b6000620004e7601f836200049e565b9150620004f482620004af565b602082019050919050565b600060208201905081810360008301526200051a81620004d8565b9050919050565b7f4e487b7100000000000000000000000000000000000000000000000000000000600052601160045260246000fd5b60006200055d8262000431565b91506200056a8362000431565b9250827fffffffffffffffffffffffffffffffffffffffffffffffffffffffffffffffff03821115620005a257620005a162000521565b5b828201905092915050565b620005b88162000431565b82525050565b6000602082019050620005d56000830184620005ad565b92915050565b7f4e487b7100000000000000000000000000000000000000000000000000000000600052602260045260246000fd5b600060028204905060018216806200062357607f821691505b602082108114156200063a5762000639620005db565b5b50919050565b6126da80620006506000396000f3fe608060405234801561001057600080fd5b506004361061014d5760003560e01c806379ba5097116100c3578063a457c2d71161007c578063a457c2d714610378578063a9059cbb146103a8578063aa271e1a146103d8578063dd62ed3e14610408578063e3056a3414610438578063f2fde38b146104565761014d565b806379ba5097146102de57806379cc6790146102e85780637ecebe001461030457806395d89b4114610334578063983b2d5614610352578063986502751461036e5761014d565b80633092afd5116101155780633092afd51461020c578063313ce56714610228578063395093511461024657806340c10f191461027657806342966c681461029257806370a08231146102ae5761014d565b806306fdde0314610152578063095ea7b3146101705780630c340a24146101a057806318160ddd146101be57806323b872dd146101dc575b600080fd5b61015a610472565b6040516101679190611b11565b60405180910390f35b61018a60048036038101906101859190611bcc565b610504565b6040516101979190611c27565b60405180910390f35b6101a8610522565b6040516101b59190611c51565b60405180910390f35b6101c6610546565b6040516101d39190611c7b565b60405180910390f35b6101f660048036038101906101f19190611c96565b610550565b6040516102039190611c27565b60405180910390f35b61022660048036038101906102219190611ce9565b61066f565b005b610230610709565b60405161023d9190611d32565b60405180910390f35b610260600480360381019061025b9190611bcc565b610712565b60405161026d9190611c27565b60405180910390f35b610290600480360381019061028b9190611bcc565b6107be565b005b6102ac60048036038101906102a79190611d4d565b61086f565b005b6102c860048036038101906102c39190611ce9565b610883565b6040516102d59190611c7b565b60405180910390f35b6102e66108cc565b005b61030260048036038101906102fd9190611bcc565b610ba2565b005b61031e60048036038101906103199190611ce9565b610c1d565b60405161032b9190611c7b565b60405180910390f35b61033c610c35565b6040516103499190611b11565b60405180910390f35b61036c60048036038101906103679190611ce9565b610cc7565b005b610376610d61565b005b610392600480360381019061038d9190611bcc565b610d6c565b60405161039f9190611c27565b60405180910390f35b6103c260048036038101906103bd9190611bcc565b610e57565b6040516103cf9190611c27565b60405180910390f35b6103f260048036038101906103ed9190611ce9565b610e75565b6040516103ff9190611c27565b60405180910390f35b610422600480360381019061041d9190611d7a565b610ecb565b60405161042f9190611c7b565b60405180910390f35b610440610f52565b60405161044d9190611c51565b60405180910390f35b610470600480360381019061046b9190611ce9565b610f78565b005b60606005805461048190611de9565b80601f01602080910402602001604051908101604052809291908181526020018280546104ad90611de9565b80156104fa5780601f106104cf576101008083540402835291602001916104fa565b820191906000526020600020905b8154815290600101906020018083116104dd57829003601f168201915b5050505050905090565b60006105186105116111a1565b84846111a9565b6001905092915050565b60008054906101000a900473ffffffffffffffffffffffffffffffffffffffff1681565b6000600454905090565b600080600360008673ffffffffffffffffffffffffffffffffffffffff1673ffffffffffffffffffffffffffffffffffffffff168152602001908152602001600020600061059c6111a1565b73ffffffffffffffffffffffffffffffffffffffff1673ffffffffffffffffffffffffffffffffffffffff1681526020019081526020016000205490507fffffffffffffffffffffffffffffffffffffffffffffffffffffffffffffffff81146106585782811015610643576040517f08c379a000000000000000000000000000000000000000000000000000000000815260040161063a90611e8d565b60405180910390fd5b6106578561064f6111a1565b8584036111a9565b5b610663858585611374565b60019150509392505050565b60008054906101000a900473ffffffffffffffffffffffffffffffffffffffff1673ffffffffffffffffffffffffffffffffffffffff163373ffffffffffffffffffffffffffffffffffffffff16146106fd576040517f08c379a00000000000000000000000000000000000000000000000000000000081526004016106f490611ef9565b60405180910390fd5b610706816115f8565b50565b60006012905090565b60006107b461071f6111a1565b84846003600061072d6111a1565b73ffffffffffffffffffffffffffffffffffffffff1673ffffffffffffffffffffffffffffffffffffffff16815260200190815260200160002060008873ffffffffffffffffffffffffffffffffffffffff1673ffffffffffffffffffffffffffffffffffffffff168152602001908152602001600020546107af9190611f48565b6111a9565b6001905092915050565b6107c733610e75565b610806576040517f08c379a00000000000000000000000000000000000000000000000000000000081526004016107fd90611fea565b60405180910390fd5b6108108282611696565b808273ffffffffffffffffffffffffffffffffffffffff163373ffffffffffffffffffffffffffffffffffffffff167fab8530f87dc9b59234c4623bf917212bb2536d647574c8e7e5da92c2ede0c9f860405160405180910390a45050565b61088061087a6111a1565b826117f7565b50565b6000600260008373ffffffffffffffffffffffffffffffffffffffff1673ffffffffffffffffffffffffffffffffffffffff168152602001908152602001600020549050919050565b600073ffffffffffffffffffffffffffffffffffffffff16600160009054906101000a900473ffffffffffffffffffffffffffffffffffffffff1673ffffffffffffffffffffffffffffffffffffffff16141580156109785750600160009054906101000a900473ffffffffffffffffffffffffffffffffffffffff1673ffffffffffffffffffffffffffffffffffffffff163373ffffffffffffffffffffffffffffffffffffffff16145b6109b7576040517f08c379a00000000000000000000000000000000000000000000000000000000081526004016109ae90612056565b60405180910390fd5b60008060009054906101000a900473ffffffffffffffffffffffffffffffffffffffff1690506000600160009054906101000a900473ffffffffffffffffffffffffffffffffffffffff169050600160009054906101000a900473ffffffffffffffffffffffffffffffffffffffff166000806101000a81548173ffffffffffffffffffffffffffffffffffffffff021916908373ffffffffffffffffffffffffffffffffffffffff1602179055506000600160006101000a81548173ffffffffffffffffffffffffffffffffffffffff021916908373ffffffffffffffffffffffffffffffffffffffff16021790555060008054906101000a900473ffffffffffffffffffffffffffffffffffffffff1673ffffffffffffffffffffffffffffffffffffffff168273ffffffffffffffffffffffffffffffffffffffff167f0ac6deed30eef60090c749850e10f2fa469e3e25fec1d1bef2853003f6e6f18f60405160405180910390a3600160009054906101000a900473ffffffffffffffffffffffffffffffffffffffff1673ffffffffffffffffffffffffffffffffffffffff168173ffffffffffffffffffffffffffffffffffffffff167f76563ad561b7036ae716b9b25cb521b21463240f104c97e12f25877f2235f33d60405160405180910390a35050565b6000610bb583610bb06111a1565b610ecb565b905081811015610bfa576040517f08c379a0000000000000000000000000000000000000000000000000000000008152600401610bf1906120e8565b60405180910390fd5b610c0e83610c066111a1565b8484036111a9565b610c1883836117f7565b505050565b60086020528060005260406000206000915090505481565b606060068054610c4490611de9565b80601f0160208091040260200160405190810160405280929190818152602001828054610c7090611de9565b8015610cbd5780601f10610c9257610100808354040283529160200191610cbd565b820191906000526020600020905b815481529060010190602001808311610ca057829003601f168201915b5050505050905090565b60008054906101000a900473ffffffffffffffffffffffffffffffffffffffff1673ffffffffffffffffffffffffffffffffffffffff163373ffffffffffffffffffffffffffffffffffffffff1614610d55576040517f08c379a0000000000000000000000000000000000000000000000000000000008152600401610d4c90611ef9565b60405180910390fd5b610d5e816119d0565b50565b610d6a336115f8565b565b60008060036000610d7b6111a1565b73ffffffffffffffffffffffffffffffffffffffff1673ffffffffffffffffffffffffffffffffffffffff16815260200190815260200160002060008573ffffffffffffffffffffffffffffffffffffffff1673ffffffffffffffffffffffffffffffffffffffff16815260200190815260200160002054905082811015610e38576040517f08c379a0000000000000000000000000000000000000000000000000000000008152600401610e2f9061217a565b60405180910390fd5b610e4c610e436111a1565b858584036111a9565b600191505092915050565b6000610e6b610e646111a1565b8484611374565b6001905092915050565b6000600760008373ffffffffffffffffffffffffffffffffffffffff1673ffffffffffffffffffffffffffffffffffffffff16815260200190815260200160002060009054906101000a900460ff169050919050565b6000600360008473ffffffffffffffffffffffffffffffffffffffff1673ffffffffffffffffffffffffffffffffffffffff16815260200190815260200160002060008373ffffffffffffffffffffffffffffffffffffffff1673ffffffffffffffffffffffffffffffffffffffff16815260200190815260200160002054905092915050565b600160009054906101000a900473ffffffffffffffffffffffffffffffffffffffff1681565b60008054906101000a900473ffffffffffffffffffffffffffffffffffffffff1673ffffffffffffffffffffffffffffffffffffffff163373ffffffffffffffffffffffffffffffffffffffff1614611006576040517f08c379a0000000000000000000000000000000000000000000000000000000008152600401610ffd90611ef9565b60405180910390fd5b600073ffffffffffffffffffffffffffffffffffffffff168173ffffffffffffffffffffffffffffffffffffffff161415611076576040517f08c379a000000000000000000000000000000000000000000000000000000000815260040161106d906121e6565b60405180910390fd5b6000600160009054906101000a900473ffffffffffffffffffffffffffffffffffffffff16905081600160006101000a81548173ffffffffffffffffffffffffffffffffffffffff021916908373ffffffffffffffffffffffffffffffffffffffff160217905550600160009054906101000a900473ffffffffffffffffffffffffffffffffffffffff1673ffffffffffffffffffffffffffffffffffffffff168173ffffffffffffffffffffffffffffffffffffffff167f76563ad561b7036ae716b9b25cb521b21463240f104c97e12f25877f2235f33d60405160405180910390a35050565b806000806101000a81548173ffffffffffffffffffffffffffffffffffffffff021916908373ffffffffffffffffffffffffffffffffffffffff16021790555050565b600033905090565b600073ffffffffffffffffffffffffffffffffffffffff168373ffffffffffffffffffffffffffffffffffffffff161415611219576040517f08c379a000000000000000000000000000000000000000000000000000000000815260040161121090612278565b60405180910390fd5b600073ffffffffffffffffffffffffffffffffffffffff168273ffffffffffffffffffffffffffffffffffffffff161415611289576040517f08c379a00000000000000000000000000000000000000000000000000000000081526004016112809061230a565b60405180910390fd5b80600360008573ffffffffffffffffffffffffffffffffffffffff1673ffffffffffffffffffffffffffffffffffffffff16815260200190815260200160002060008473ffffffffffffffffffffffffffffffffffffffff1673ffffffffffffffffffffffffffffffffffffffff168152602001908152602001600020819055508173ffffffffffffffffffffffffffffffffffffffff168373ffffffffffffffffffffffffffffffffffffffff167f8c5be1e5ebec7d5bd14f71427d1e84f3dd0314c0f7b2291e5b200ac8c7c3b925836040516113679190611c7b565b60405180910390a3505050565b600073ffffffffffffffffffffffffffffffffffffffff168373ffffffffffffffffffffffffffffffffffffffff1614156113e4576040517f08c379a00000000000000000000000000000000000000000000000000000000081526004016113db9061239c565b60405180910390fd5b600073ffffffffffffffffffffffffffffffffffffffff168273ffffffffffffffffffffffffffffffffffffffff161415611454576040517f08c379a000000000000000000000000000000000000000000000000000000000815260040161144b9061242e565b60405180910390fd5b61145f838383611a6e565b6000600260008573ffffffffffffffffffffffffffffffffffffffff1673ffffffffffffffffffffffffffffffffffffffff168152602001908152602001600020549050818110156114e6576040517f08c379a00000000000000000000000000000000000000000000000000000000081526004016114dd906124c0565b60405180910390fd5b818103600260008673ffffffffffffffffffffffffffffffffffffffff1673ffffffffffffffffffffffffffffffffffffffff1681526020019081526020016000208190555081600260008573ffffffffffffffffffffffffffffffffffffffff1673ffffffffffffffffffffffffffffffffffffffff168152602001908152602001600020600082825461157b9190611f48565b925050819055508273ffffffffffffffffffffffffffffffffffffffff168473ffffffffffffffffffffffffffffffffffffffff167fddf252ad1be2c89b69c2b068fc378daa952ba7f163c4a11628f55a4df523b3ef846040516115df9190611c7b565b60405180910390a36115f2848484611a73565b50505050565b6000600760008373ffffffffffffffffffffffffffffffffffffffff1673ffffffffffffffffffffffffffffffffffffffff16815260200190815260200160002060006101000a81548160ff0219169083151502179055508073ffffffffffffffffffffffffffffffffffffffff167fe94479a9f7e1952cc78f2d6baab678adc1b772d936c6583def489e524cb6669260405160405180910390a250565b600073ffffffffffffffffffffffffffffffffffffffff168273ffffffffffffffffffffffffffffffffffffffff161415611706576040517f08c379a00000000000000000000000000000000000000000000000000000000081526004016116fd9061252c565b60405180910390fd5b61171260008383611a6e565b80600460008282546117249190611f48565b9250508190555080600260008473ffffffffffffffffffffffffffffffffffffffff1673ffffffffffffffffffffffffffffffffffffffff168152602001908152602001600020600082825461177a9190611f48565b925050819055508173ffffffffffffffffffffffffffffffffffffffff16600073ffffffffffffffffffffffffffffffffffffffff167fddf252ad1be2c89b69c2b068fc378daa952ba7f163c4a11628f55a4df523b3ef836040516117df9190611c7b565b60405180910390a36117f360008383611a73565b5050565b600073ffffffffffffffffffffffffffffffffffffffff168273ffffffffffffffffffffffffffffffffffffffff161415611867576040517f08c379a000000000000000000000000000000000000000000000000000000000815260040161185e906125be565b60405180910390fd5b61187382600083611a6e565b6000600260008473ffffffffffffffffffffffffffffffffffffffff1673ffffffffffffffffffffffffffffffffffffffff168152602001908152602001600020549050818110156118fa576040517f08c379a00000000000000000000000000000000000000000000000000000000081526004016118f190612650565b60405180910390fd5b818103600260008573ffffffffffffffffffffffffffffffffffffffff1673ffffffffffffffffffffffffffffffffffffffff1681526020019081526020016000208190555081600460008282546119529190612670565b92505081905550600073ffffffffffffffffffffffffffffffffffffffff168373ffffffffffffffffffffffffffffffffffffffff167fddf252ad1be2c89b69c2b068fc378daa952ba7f163c4a11628f55a4df523b3ef846040516119b79190611c7b565b60405180910390a36119cb83600084611a73565b505050565b6001600760008373ffffffffffffffffffffffffffffffffffffffff1673ffffffffffffffffffffffffffffffffffffffff16815260200190815260200160002060006101000a81548160ff0219169083151502179055508073ffffffffffffffffffffffffffffffffffffffff167f6ae172837ea30b801fbfcdd4108aa1d5bf8ff775444fd70256b44e6bf3dfc3f660405160405180910390a250565b505050565b505050565b600081519050919050565b600082825260208201905092915050565b60005b83811015611ab2578082015181840152602081019050611a97565b83811115611ac1576000848401525b50505050565b6000601f19601f8301169050919050565b6000611ae382611a78565b611aed8185611a83565b9350611afd818560208601611a94565b611b0681611ac7565b840191505092915050565b60006020820190508181036000830152611b2b8184611ad8565b905092915050565b600080fd5b600073ffffffffffffffffffffffffffffffffffffffff82169050919050565b6000611b6382611b38565b9050919050565b611b7381611b58565b8114611b7e57600080fd5b50565b600081359050611b9081611b6a565b92915050565b6000819050919050565b611ba981611b96565b8114611bb457600080fd5b50565b600081359050611bc681611ba0565b92915050565b60008060408385031215611be357611be2611b33565b5b6000611bf185828601611b81565b9250506020611c0285828601611bb7565b9150509250929050565b60008115159050919050565b611c2181611c0c565b82525050565b6000602082019050611c3c6000830184611c18565b92915050565b611c4b81611b58565b82525050565b6000602082019050611c666000830184611c42565b92915050565b611c7581611b96565b82525050565b6000602082019050611c906000830184611c6c565b92915050565b600080600060608486031215611caf57611cae611b33565b5b6000611cbd86828701611b81565b9350506020611cce86828701611b81565b9250506040611cdf86828701611bb7565b9150509250925092565b600060208284031215611cff57611cfe611b33565b5b6000611d0d84828501611b81565b91505092915050565b600060ff82169050919050565b611d2c81611d16565b82525050565b6000602082019050611d476000830184611d23565b92915050565b600060208284031215611d6357611d62611b33565b5b6000611d7184828501611bb7565b91505092915050565b60008060408385031215611d9157611d90611b33565b5b6000611d9f85828601611b81565b9250506020611db085828601611b81565b9150509250929050565b7f4e487b7100000000000000000000000000000000000000000000000000000000600052602260045260246000fd5b60006002820490506001821680611e0157607f821691505b60208210811415611e1557611e14611dba565b5b50919050565b7f45524332303a207472616e7366657220616d6f756e742065786365656473206160008201527f6c6c6f77616e6365000000000000000000000000000000000000000000000000602082015250565b6000611e77602883611a83565b9150611e8282611e1b565b604082019050919050565b60006020820190508181036000830152611ea681611e6a565b9050919050565b7f4f6e6c7920476f7665726e6f722063616e2063616c6c00000000000000000000600082015250565b6000611ee3601683611a83565b9150611eee82611ead565b602082019050919050565b60006020820190508181036000830152611f1281611ed6565b9050919050565b7f4e487b7100000000000000000000000000000000000000000000000000000000600052601160045260246000fd5b6000611f5382611b96565b9150611f5e83611b96565b9250827fffffffffffffffffffffffffffffffffffffffffffffffffffffffffffffffff03821115611f9357611f92611f19565b5b828201905092915050565b7f4f6e6c79206d696e7465722063616e2063616c6c000000000000000000000000600082015250565b6000611fd4601483611a83565b9150611fdf82611f9e565b602082019050919050565b6000602082019050818103600083015261200381611fc7565b9050919050565b7f43616c6c6572206d7573742062652070656e64696e6720676f7665726e6f7200600082015250565b6000612040601f83611a83565b915061204b8261200a565b602082019050919050565b6000602082019050818103600083015261206f81612033565b9050919050565b7f45524332303a206275726e20616d6f756e74206578636565647320616c6c6f7760008201527f616e636500000000000000000000000000000000000000000000000000000000602082015250565b60006120d2602483611a83565b91506120dd82612076565b604082019050919050565b60006020820190508181036000830152612101816120c5565b9050919050565b7f45524332303a2064656372656173656420616c6c6f77616e63652062656c6f7760008201527f207a65726f000000000000000000000000000000000000000000000000000000602082015250565b6000612164602583611a83565b915061216f82612108565b604082019050919050565b6000602082019050818103600083015261219381612157565b9050919050565b7f476f7665726e6f72206d75737420626520736574000000000000000000000000600082015250565b60006121d0601483611a83565b91506121db8261219a565b602082019050919050565b600060208201905081810360008301526121ff816121c3565b9050919050565b7f45524332303a20617070726f76652066726f6d20746865207a65726f2061646460008201527f7265737300000000000000000000000000000000000000000000000000000000602082015250565b6000612262602483611a83565b915061226d82612206565b604082019050919050565b6000602082019050818103600083015261229181612255565b9050919050565b7f45524332303a20617070726f766520746f20746865207a65726f20616464726560008201527f7373000000000000000000000000000000000000000000000000000000000000602082015250565b60006122f4602283611a83565b91506122ff82612298565b604082019050919050565b60006020820190508181036000830152612323816122e7565b9050919050565b7f45524332303a207472616e736665722066726f6d20746865207a65726f20616460008201527f6472657373000000000000000000000000000000000000000000000000000000602082015250565b6000612386602583611a83565b91506123918261232a565b604082019050919050565b600060208201905081810360008301526123b581612379565b9050919050565b7f45524332303a207472616e7366657220746f20746865207a65726f206164647260008201527f6573730000000000000000000000000000000000000000000000000000000000602082015250565b6000612418602383611a83565b9150612423826123bc565b604082019050919050565b600060208201905081810360008301526124478161240b565b9050919050565b7f45524332303a207472616e7366657220616d6f756e742065786365656473206260008201527f616c616e63650000000000000000000000000000000000000000000000000000602082015250565b60006124aa602683611a83565b91506124b58261244e565b604082019050919050565b600060208201905081810360008301526124d98161249d565b9050919050565b7f45524332303a206d696e7420746f20746865207a65726f206164647265737300600082015250565b6000612516601f83611a83565b9150612521826124e0565b602082019050919050565b6000602082019050818103600083015261254581612509565b9050919050565b7f45524332303a206275726e2066726f6d20746865207a65726f2061646472657360008201527f7300000000000000000000000000000000000000000000000000000000000000602082015250565b60006125a8602183611a83565b91506125b38261254c565b604082019050919050565b600060208201905081810360008301526125d78161259b565b9050919050565b7f45524332303a206275726e20616d6f756e7420657863656564732062616c616e60008201527f6365000000000000000000000000000000000000000000000000000000000000602082015250565b600061263a602283611a83565b9150612645826125de565b604082019050919050565b600060208201905081810360008301526126698161262d565b9050919050565b600061267b82611b96565b915061268683611b96565b92508282101561269957612698611f19565b5b82820390509291505056fea26469706673582212201eb6ecbede1e0a53e72e6195ba8266ebd79e19fb024cf9651f57122ab1fff7ac64736f6c634300080b0033",
  "immutableReferences": {},
  "source": "//SPDX-License-Identifier: UNLICENSED\r\n\r\npragma solidity ^0.8.0;\r\n\r\n/// @title Crowdfunding platform\r\n/// @author Riccardo Magni\r\n/// @notice This contract was created for educational purpose, its reliability is not guaranteed\r\n/// @dev All functions calls are currently implemented without side effects\r\n\r\n\r\nimport \"./ERC20.sol\";\r\nimport \"./Governed.sol\";\r\nimport \"./ERC20Burnable.sol\";\r\nimport \"./SafeMath.sol\";\r\n\r\n/**\r\n * @title Crowd Token contract\r\n * @dev This is the implementation of the ERC20 CWD Token.\r\n *\r\n * The token is initially owned by the deployer address that can mint tokens to create the initial\r\n * distribution. For convenience, an initial supply can be passed in the constructor that will be\r\n * assigned to the deployer.\r\n *\r\n */\r\ncontract CWDToken is Governed, ERC20, ERC20Burnable {\r\n\r\n    // -- State --\r\n    mapping(address => bool) private _minters;\r\n    mapping(address => uint256) public nonces;\r\n\r\n    // -- Events --\r\n    event MinterAdded(address indexed account);\r\n    event MinterRemoved(address indexed account);\r\n    event Mint(address indexed minter, address indexed to, uint256 indexed amount);\r\n\r\n    // -- Modifier --\r\n    modifier onlyMinter() {\r\n        require(isMinter(msg.sender), \"Only minter can call\");\r\n        _;\r\n    }\r\n\r\n    /**\r\n     * @dev Crowd Token Contract Constructor.\r\n     * @param _initialSupply Initial supply of CWD\r\n     */\r\n    constructor(uint256 _initialSupply) ERC20(\"Crowd Token\", \"CWD\") {\r\n        Governed._initialize(msg.sender);\r\n\r\n        // The Governor has the initial supply of tokens\r\n        _mint(msg.sender, _initialSupply);\r\n\r\n        // The Governor is the default minter\r\n        _addMinter(msg.sender);\r\n\r\n    }\r\n\r\n\r\n    /**\r\n     * @dev Add a new minter.\r\n     * @param _account Address of the minter\r\n     */\r\n    function addMinter(address _account) external onlyGovernor {\r\n        _addMinter(_account);\r\n    }\r\n\r\n    /**\r\n     * @dev Remove a minter.\r\n     * @param _account Address of the minter\r\n     */\r\n    function removeMinter(address _account) external onlyGovernor {\r\n        _removeMinter(_account);\r\n    }\r\n\r\n    /**\r\n     * @dev Renounce to be a minter.\r\n     */\r\n    function renounceMinter() external {\r\n        _removeMinter(msg.sender);\r\n    }\r\n\r\n    /**\r\n     * @dev Mint new tokens.\r\n     * @param _to Address to send the newly minted tokens\r\n     * @param _amount Amount of tokens to mint\r\n     */\r\n    function mint(address _to, uint256 _amount) external onlyMinter {\r\n        _mint(_to, _amount);\r\n        emit Mint(msg.sender, _to, _amount);\r\n    }\r\n\r\n    /**\r\n     * @dev Return if the `_account` is a minter or not.\r\n     * @param _account Address to check\r\n     * @return True if the `_account` is minter\r\n     */\r\n    function isMinter(address _account) public view returns (bool) {\r\n        return _minters[_account];\r\n    }\r\n\r\n    /**\r\n     * @dev Add a new minter.\r\n     * @param _account Address of the minter\r\n     */\r\n    function _addMinter(address _account) private {\r\n        _minters[_account] = true;\r\n        emit MinterAdded(_account);\r\n    }\r\n\r\n    /**\r\n     * @dev Remove a minter.\r\n     * @param _account Address of the minter\r\n     */\r\n    function _removeMinter(address _account) private {\r\n        _minters[_account] = false;\r\n        emit MinterRemoved(_account);\r\n    }\r\n\r\n}\r\n\r\n/**\r\n* @title Crowdfunding platform contract\r\n* @dev This is the implementation of the the crowdfunding platform associated with CWD token.\r\n*/\r\n\r\ncontract CrowdFunding is CWDToken {\r\n\r\n    /// @dev Wrappers over Solidity's arithmetic operations with added overflow checks\r\n    using SafeMath for uint;\r\n\r\n    // -- State --\r\n    struct Campaign {\r\n        address payable beneficiary;\r\n        string description;\r\n        uint fundingGoal;\r\n        uint deadline;\r\n        uint numFunders;\r\n        uint amount;\r\n        mapping (address => uint) funders;\r\n        bool completed;\r\n    }\r\n\r\n    uint public numCampaigns;\r\n    mapping (uint => Campaign) public campaigns;\r\n\r\n    uint public minPeriodOfDeadline;\r\n\r\n    // -- Events --\r\n    event NewCampaignCreated(uint indexed campaignID, address indexed beneficiary, uint indexed deadline, uint amount);\r\n    event NewContribution(address indexed from, uint indexed campaignID, uint indexed amountFunded);\r\n    event Refund(address indexed refunded, uint indexed amount, uint indexed campaignID);\r\n    event GoalReached(uint indexed campaignID, uint indexed timestamp);\r\n    event OfferReceived(address indexed from, uint indexed amount);\r\n\r\n    /**\r\n     * @dev Crowdfunding Contract Constructor.\r\n     * @param _initialSupply Initial supply of CWD\r\n     * @param _minPeriodOfDeadline Minimum period before the deadline of a campaign\r\n     */\r\n    constructor (uint _initialSupply, uint _minPeriodOfDeadline) CWDToken (_initialSupply) {\r\n\r\n        // Set minPeriodOfDeadline to discourage creation of fake campaigns only to get token\r\n        minPeriodOfDeadline = _minPeriodOfDeadline;\r\n\r\n    }\r\n\r\n    /**\r\n     * @dev Add a new campaign\r\n     * @param _beneficiary Beneficiary of the campaign\r\n     * @param _description Description of the campaign\r\n     * @param _goal Target of the campaign to be reached\r\n     * @param _deadline Deadline of the campaign\r\n     * @return The uint of the campaign ID associated with the campaign just created\r\n     */\r\n    function newCampaign(address payable _beneficiary, string memory _description, uint _goal, uint _deadline) public returns (uint) {\r\n\r\n        require(_beneficiary != address(0), \"Zero address entered!\");\r\n        require(_goal > 0, \"Goal has to be a positive value\");\r\n        require(_deadline > block.timestamp, \"Set a future deadline!\");\r\n        require(_deadline.sub(block.timestamp) > minPeriodOfDeadline, \"Set a future deadline!\");\r\n\r\n        uint campaignID = numCampaigns++;\r\n        Campaign storage c = campaigns[campaignID];\r\n        c.beneficiary = _beneficiary;\r\n        c.description = _description;\r\n        c.fundingGoal = _goal;\r\n        c.deadline = _deadline;\r\n\r\n        emit NewCampaignCreated(campaignID, c.beneficiary, c.amount, c.deadline);\r\n\r\n        return campaignID;\r\n    }\r\n\r\n    /**\r\n     * @dev Contribute to a campaign\r\n     * @param campaignID ID associated with the campaign\r\n     */\r\n    function contribute(uint campaignID) public payable {\r\n        Campaign storage c = campaigns[campaignID];\r\n        require(c.completed == false, \"Campaign has been already completed!\");\r\n        require(c.fundingGoal > 0, \"CampaingID is not correct!\");\r\n        require(c.deadline > block.timestamp, \"Deadline has already been reached!\");\r\n\r\n        if(c.funders[msg.sender] == 0) {\r\n            c.numFunders++;\r\n        }\r\n\r\n        c.funders[msg.sender] = c.funders[msg.sender].add(msg.value);\r\n        c.amount = c.amount.add(msg.value);\r\n\r\n        emit NewContribution(msg.sender, campaignID, msg.value);\r\n\r\n        // Reward funder with CWD tokens\r\n        ERC20._mint(msg.sender, msg.value);\r\n\r\n        // Check if goal of the campaign has been reached\r\n        // and if it happened, send amount to its beneficiary\r\n        if(checkGoalReached(campaignID)) {\r\n            uint amount = c.amount;\r\n            c.amount = 0;\r\n            c.completed = true;\r\n            c.beneficiary.transfer(amount);\r\n\r\n            // Reward funder who made the campaign reach the goal with further CWD tokens\r\n            ERC20._mint(msg.sender, 1000);\r\n        }\r\n    }\r\n\r\n    /**\r\n     * @dev Check if the goal of the campaign has been reached\r\n     * @param campaignID ID associated with the campaign\r\n     * @return True if amount reached is more or equal to the goal of the campaign, otherwise false\r\n     */\r\n    function checkGoalReached(uint campaignID) public returns (bool) {\r\n        Campaign storage c = campaigns[campaignID];\r\n        if (c.completed == true) {\r\n            return true;\r\n        }\r\n        else if (c.amount < c.fundingGoal) {\r\n            return false;\r\n        }\r\n        else\r\n        {\r\n            emit GoalReached(campaignID, block.timestamp);\r\n            return true;\r\n        }\r\n\r\n    }\r\n\r\n    /**\r\n     * @dev Refund contributors if the campaign has failed\r\n     * @param campaignID ID associated with the campaign\r\n     */\r\n    function refund(uint campaignID) public {\r\n\r\n        Campaign storage c = campaigns[campaignID];\r\n\r\n        require(c.fundingGoal > 0, \"CampaignID is not correct!\");\r\n        require(block.timestamp > c.deadline, \"Campaign is still in progress!\");\r\n        require(c.completed == false, \"Campaign has been successfully completed!\");\r\n        require(c.funders[msg.sender] > 0, \"You have been already refunded or you are not a funder!\");\r\n\r\n        uint amountFunded = c.funders[msg.sender];\r\n        c.funders[msg.sender] = 0;\r\n        c.amount = c.amount.sub(amountFunded);\r\n        payable(msg.sender).transfer(amountFunded);\r\n\r\n        emit Refund(msg.sender, amountFunded, campaignID);\r\n    }\r\n\r\n    /**\r\n     * @dev Permit the governor to transfer value stored in the contract\r\n     * @param _recipient Recipient of sent value\r\n     */\r\n    function collect(address payable _recipient) public onlyGovernor {\r\n        _recipient.transfer(address(this).balance);\r\n    }\r\n\r\n    /**\r\n     * @dev Fallback function: hold sent value in the contract\r\n     */\r\n    receive() external payable {\r\n        emit OfferReceived(msg.sender, msg.value);\r\n    }\r\n\r\n}\r\n",
  "sourcePath": "C:\\Users\\Utente\\Desktop\\contracts-test\\contracts\\Crowdfunding.sol",
  "compiler": {
    "name": "solc",
    "version": "0.8.11+commit.d7f03943.Emscripten.clang"
  },
  "schemaVersion": "3.4.4",
  "updatedAt": "2022-02-07T09:45:23.599Z",
  "devdoc": {
    "details": "This is the implementation of the ERC20 CWD Token. The token is initially owned by the deployer address that can mint tokens to create the initial distribution. For convenience, an initial supply can be passed in the constructor that will be assigned to the deployer.",
    "kind": "dev",
    "methods": {
      "acceptOwnership()": {
        "details": "Admin function for pending governor to accept role and update governor. This function must called by the pending governor."
      },
      "addMinter(address)": {
        "details": "Add a new minter.",
        "params": {
          "_account": "Address of the minter"
        }
      },
      "allowance(address,address)": {
        "details": "See {IERC20-allowance}."
      },
      "approve(address,uint256)": {
        "details": "See {IERC20-approve}. NOTE: If `amount` is the maximum `uint256`, the allowance is not updated on `transferFrom`. This is semantically equivalent to an infinite approval. Requirements: - `spender` cannot be the zero address."
      },
      "balanceOf(address)": {
        "details": "See {IERC20-balanceOf}."
      },
      "burn(uint256)": {
        "details": "Destroys `amount` tokens from the caller. See {ERC20-_burn}."
      },
      "burnFrom(address,uint256)": {
        "details": "Destroys `amount` tokens from `account`, deducting from the caller's allowance. See {ERC20-_burn} and {ERC20-allowance}. Requirements: - the caller must have allowance for ``accounts``'s tokens of at least `amount`."
      },
      "constructor": {
        "details": "Crowd Token Contract Constructor.",
        "params": {
          "_initialSupply": "Initial supply of CWD"
        }
      },
      "decimals()": {
        "details": "Returns the number of decimals used to get its user representation. For example, if `decimals` equals `2`, a balance of `505` tokens should be displayed to a user as `5.05` (`505 / 10 ** 2`). Tokens usually opt for a value of 18, imitating the relationship between Ether and Wei. This is the value {ERC20} uses, unless this function is overridden; NOTE: This information is only used for _display_ purposes: it in no way affects any of the arithmetic of the contract, including {IERC20-balanceOf} and {IERC20-transfer}."
      },
      "decreaseAllowance(address,uint256)": {
        "details": "Atomically decreases the allowance granted to `spender` by the caller. This is an alternative to {approve} that can be used as a mitigation for problems described in {IERC20-approve}. Emits an {Approval} event indicating the updated allowance. Requirements: - `spender` cannot be the zero address. - `spender` must have allowance for the caller of at least `subtractedValue`."
      },
      "increaseAllowance(address,uint256)": {
        "details": "Atomically increases the allowance granted to `spender` by the caller. This is an alternative to {approve} that can be used as a mitigation for problems described in {IERC20-approve}. Emits an {Approval} event indicating the updated allowance. Requirements: - `spender` cannot be the zero address."
      },
      "isMinter(address)": {
        "details": "Return if the `_account` is a minter or not.",
        "params": {
          "_account": "Address to check"
        },
        "returns": {
          "_0": "True if the `_account` is minter"
        }
      },
      "mint(address,uint256)": {
        "details": "Mint new tokens.",
        "params": {
          "_amount": "Amount of tokens to mint",
          "_to": "Address to send the newly minted tokens"
        }
      },
      "name()": {
        "details": "Returns the name of the token."
      },
      "removeMinter(address)": {
        "details": "Remove a minter.",
        "params": {
          "_account": "Address of the minter"
        }
      },
      "renounceMinter()": {
        "details": "Renounce to be a minter."
      },
      "symbol()": {
        "details": "Returns the symbol of the token, usually a shorter version of the name."
      },
      "totalSupply()": {
        "details": "See {IERC20-totalSupply}."
      },
      "transfer(address,uint256)": {
        "details": "See {IERC20-transfer}. Requirements: - `recipient` cannot be the zero address. - the caller must have a balance of at least `amount`."
      },
      "transferFrom(address,address,uint256)": {
        "details": "See {IERC20-transferFrom}. Emits an {Approval} event indicating the updated allowance. This is not required by the EIP. See the note at the beginning of {ERC20}. NOTE: Does not update the allowance if the current allowance is the maximum `uint256`. Requirements: - `sender` and `recipient` cannot be the zero address. - `sender` must have a balance of at least `amount`. - the caller must have allowance for ``sender``'s tokens of at least `amount`."
      },
      "transferOwnership(address)": {
        "details": "Admin function to begin change of governor. The `_newGovernor` must call `acceptOwnership` to finalize the transfer.",
        "params": {
          "_newGovernor": "Address of new `governor`"
        }
      }
    },
    "title": "Crowd Token contract",
    "version": 1
  },
  "userdoc": {
    "kind": "user",
    "methods": {},
    "version": 1
  }
}